{
  "_format": "hh-sol-artifact-1",
  "contractName": "FilecoinTicketNFT",
  "sourceName": "contracts/FilecoinTicketNFT.sol",
  "abi": [
    {
      "inputs": [],
      "stateMutability": "nonpayable",
      "type": "constructor"
    },
    {
      "anonymous": false,
      "inputs": [
        {
          "indexed": true,
          "internalType": "address",
          "name": "owner",
          "type": "address"
        },
        {
          "indexed": true,
          "internalType": "address",
          "name": "approved",
          "type": "address"
        },
        {
          "indexed": true,
          "internalType": "uint256",
          "name": "tokenId",
          "type": "uint256"
        }
      ],
      "name": "Approval",
      "type": "event"
    },
    {
      "anonymous": false,
      "inputs": [
        {
          "indexed": true,
          "internalType": "address",
          "name": "owner",
          "type": "address"
        },
        {
          "indexed": true,
          "internalType": "address",
          "name": "operator",
          "type": "address"
        },
        {
          "indexed": false,
          "internalType": "bool",
          "name": "approved",
          "type": "bool"
        }
      ],
      "name": "ApprovalForAll",
      "type": "event"
    },
    {
      "anonymous": false,
      "inputs": [
        {
          "indexed": false,
          "internalType": "address",
          "name": "sender",
          "type": "address"
        },
        {
          "indexed": false,
          "internalType": "uint256",
          "name": "tokenId",
          "type": "uint256"
        },
        {
          "indexed": false,
          "internalType": "string",
          "name": "tokenURI",
          "type": "string"
        }
      ],
      "name": "NewFilecoinNFTMinted",
      "type": "event"
    },
    {
      "anonymous": false,
      "inputs": [
        {
          "indexed": true,
          "internalType": "address",
          "name": "previousOwner",
          "type": "address"
        },
        {
          "indexed": true,
          "internalType": "address",
          "name": "newOwner",
          "type": "address"
        }
      ],
      "name": "OwnershipTransferred",
      "type": "event"
    },
    {
      "anonymous": false,
      "inputs": [
        {
          "indexed": false,
          "internalType": "uint256",
          "name": "remainingMintableNFTs",
          "type": "uint256"
        }
      ],
      "name": "RemainingMintableNFTChange",
      "type": "event"
    },
    {
      "anonymous": false,
      "inputs": [
        {
          "indexed": true,
          "internalType": "address",
          "name": "from",
          "type": "address"
        },
        {
          "indexed": true,
          "internalType": "address",
          "name": "to",
          "type": "address"
        },
        {
          "indexed": true,
          "internalType": "uint256",
          "name": "tokenId",
          "type": "uint256"
        }
      ],
      "name": "Transfer",
      "type": "event"
    },
    {
      "inputs": [
        {
          "internalType": "address",
          "name": "to",
          "type": "address"
        },
        {
          "internalType": "uint256",
          "name": "tokenId",
          "type": "uint256"
        }
      ],
      "name": "approve",
      "outputs": [],
      "stateMutability": "nonpayable",
      "type": "function"
    },
    {
      "inputs": [
        {
          "internalType": "address",
          "name": "owner",
          "type": "address"
        }
      ],
      "name": "balanceOf",
      "outputs": [
        {
          "internalType": "uint256",
          "name": "",
          "type": "uint256"
        }
      ],
      "stateMutability": "view",
      "type": "function"
    },
    {
      "inputs": [
        {
          "internalType": "uint256",
          "name": "tokenId",
          "type": "uint256"
        }
      ],
      "name": "getApproved",
      "outputs": [
        {
          "internalType": "address",
          "name": "",
          "type": "address"
        }
      ],
      "stateMutability": "view",
      "type": "function"
    },
    {
      "inputs": [],
      "name": "getNFTCollection",
      "outputs": [
        {
          "components": [
            {
              "internalType": "address",
              "name": "owner",
              "type": "address"
            },
            {
              "internalType": "string",
              "name": "tokenURI",
              "type": "string"
            },
            {
              "internalType": "uint256",
              "name": "tokenId",
              "type": "uint256"
            }
          ],
          "internalType": "struct FilecoinTicketNFT.myNFT[]",
          "name": "",
          "type": "tuple[]"
        }
      ],
      "stateMutability": "view",
      "type": "function"
    },
    {
      "inputs": [],
      "name": "getRemainingMintableNFTs",
      "outputs": [
        {
          "internalType": "uint256",
          "name": "",
          "type": "uint256"
        }
      ],
      "stateMutability": "view",
      "type": "function"
    },
    {
      "inputs": [
        {
          "internalType": "address",
          "name": "owner",
          "type": "address"
        },
        {
          "internalType": "address",
          "name": "operator",
          "type": "address"
        }
      ],
      "name": "isApprovedForAll",
      "outputs": [
        {
          "internalType": "bool",
          "name": "",
          "type": "bool"
        }
      ],
      "stateMutability": "view",
      "type": "function"
    },
    {
      "inputs": [],
      "name": "maxNFTs",
      "outputs": [
        {
          "internalType": "uint256",
          "name": "",
          "type": "uint256"
        }
      ],
      "stateMutability": "view",
      "type": "function"
    },
    {
      "inputs": [
        {
          "internalType": "string",
          "name": "ipfsURI",
          "type": "string"
        }
      ],
      "name": "mintMyNFT",
      "outputs": [],
      "stateMutability": "nonpayable",
      "type": "function"
    },
    {
      "inputs": [],
      "name": "name",
      "outputs": [
        {
          "internalType": "string",
          "name": "",
          "type": "string"
        }
      ],
      "stateMutability": "view",
      "type": "function"
    },
    {
      "inputs": [
        {
          "internalType": "uint256",
          "name": "",
          "type": "uint256"
        }
      ],
      "name": "nftCollection",
      "outputs": [
        {
          "internalType": "address",
          "name": "owner",
          "type": "address"
        },
        {
          "internalType": "string",
          "name": "tokenURI",
          "type": "string"
        },
        {
          "internalType": "uint256",
          "name": "tokenId",
          "type": "uint256"
        }
      ],
      "stateMutability": "view",
      "type": "function"
    },
    {
      "inputs": [],
      "name": "owner",
      "outputs": [
        {
          "internalType": "address",
          "name": "",
          "type": "address"
        }
      ],
      "stateMutability": "view",
      "type": "function"
    },
    {
      "inputs": [
        {
          "internalType": "uint256",
          "name": "tokenId",
          "type": "uint256"
        }
      ],
      "name": "ownerOf",
      "outputs": [
        {
          "internalType": "address",
          "name": "",
          "type": "address"
        }
      ],
      "stateMutability": "view",
      "type": "function"
    },
    {
      "inputs": [],
      "name": "remainingMintableNFTs",
      "outputs": [
        {
          "internalType": "uint256",
          "name": "",
          "type": "uint256"
        }
      ],
      "stateMutability": "view",
      "type": "function"
    },
    {
      "inputs": [],
      "name": "renounceOwnership",
      "outputs": [],
      "stateMutability": "nonpayable",
      "type": "function"
    },
    {
      "inputs": [
        {
          "internalType": "address",
          "name": "from",
          "type": "address"
        },
        {
          "internalType": "address",
          "name": "to",
          "type": "address"
        },
        {
          "internalType": "uint256",
          "name": "tokenId",
          "type": "uint256"
        }
      ],
      "name": "safeTransferFrom",
      "outputs": [],
      "stateMutability": "nonpayable",
      "type": "function"
    },
    {
      "inputs": [
        {
          "internalType": "address",
          "name": "from",
          "type": "address"
        },
        {
          "internalType": "address",
          "name": "to",
          "type": "address"
        },
        {
          "internalType": "uint256",
          "name": "tokenId",
          "type": "uint256"
        },
        {
          "internalType": "bytes",
          "name": "_data",
          "type": "bytes"
        }
      ],
      "name": "safeTransferFrom",
      "outputs": [],
      "stateMutability": "nonpayable",
      "type": "function"
    },
    {
      "inputs": [
        {
          "internalType": "address",
          "name": "operator",
          "type": "address"
        },
        {
          "internalType": "bool",
          "name": "approved",
          "type": "bool"
        }
      ],
      "name": "setApprovalForAll",
      "outputs": [],
      "stateMutability": "nonpayable",
      "type": "function"
    },
    {
      "inputs": [
        {
          "internalType": "bytes4",
          "name": "interfaceId",
          "type": "bytes4"
        }
      ],
      "name": "supportsInterface",
      "outputs": [
        {
          "internalType": "bool",
          "name": "",
          "type": "bool"
        }
      ],
      "stateMutability": "view",
      "type": "function"
    },
    {
      "inputs": [],
      "name": "symbol",
      "outputs": [
        {
          "internalType": "string",
          "name": "",
          "type": "string"
        }
      ],
      "stateMutability": "view",
      "type": "function"
    },
    {
      "inputs": [
        {
          "internalType": "uint256",
          "name": "tokenId",
          "type": "uint256"
        }
      ],
      "name": "tokenURI",
      "outputs": [
        {
          "internalType": "string",
          "name": "",
          "type": "string"
        }
      ],
      "stateMutability": "view",
      "type": "function"
    },
    {
      "inputs": [
        {
          "internalType": "address",
          "name": "from",
          "type": "address"
        },
        {
          "internalType": "address",
          "name": "to",
          "type": "address"
        },
        {
          "internalType": "uint256",
          "name": "tokenId",
          "type": "uint256"
        }
      ],
      "name": "transferFrom",
      "outputs": [],
      "stateMutability": "nonpayable",
      "type": "function"
    },
    {
      "inputs": [
        {
          "internalType": "address",
          "name": "newOwner",
          "type": "address"
        }
      ],
      "name": "transferOwnership",
      "outputs": [],
      "stateMutability": "nonpayable",
      "type": "function"
    }
  ],
  "bytecode": "0x60806040523480156200001157600080fd5b506040518060400160405280601481526020017f46616265722057656233204861636b20323032320000000000000000000000008152506040518060400160405280601581526020017f46696c65636f696e2053746172746572204e4654730000000000000000000000815250816000908051906020019062000096929190620002c9565b508060019080519060200190620000af929190620002c9565b505050620000d2620000c66200012c60201b60201c565b6200013460201b60201c565b6200011e6040518060400160405280602081526020017f54686973206973206d79204e465420636f6e747261637420616464726573733a81525030620001fa60201b620012b01760201c565b6064600981905550620004fb565b600033905090565b6000600760009054906101000a900473ffffffffffffffffffffffffffffffffffffffff16905081600760006101000a81548173ffffffffffffffffffffffffffffffffffffffff021916908373ffffffffffffffffffffffffffffffffffffffff1602179055508173ffffffffffffffffffffffffffffffffffffffff168173ffffffffffffffffffffffffffffffffffffffff167f8be0079c531659141344cd1fd0a4f28419497f9722a3daafe3b4186f6b6457e060405160405180910390a35050565b6200029c828260405160240162000213929190620003cb565b6040516020818303038152906040527f319af333000000000000000000000000000000000000000000000000000000007bffffffffffffffffffffffffffffffffffffffffffffffffffffffff19166020820180517bffffffffffffffffffffffffffffffffffffffffffffffffffffffff8381831617835250505050620002a060201b60201c565b5050565b60008151905060006a636f6e736f6c652e6c6f679050602083016000808483855afa5050505050565b828054620002d79062000485565b90600052602060002090601f016020900481019282620002fb576000855562000347565b82601f106200031657805160ff191683800117855562000347565b8280016001018555821562000347579182015b828111156200034657825182559160200191906001019062000329565b5b5090506200035691906200035a565b5090565b5b80821115620003755760008160009055506001016200035b565b5090565b62000384816200041b565b82525050565b60006200039782620003ff565b620003a381856200040a565b9350620003b58185602086016200044f565b620003c081620004ea565b840191505092915050565b60006040820190508181036000830152620003e781856200038a565b9050620003f8602083018462000379565b9392505050565b600081519050919050565b600082825260208201905092915050565b600062000428826200042f565b9050919050565b600073ffffffffffffffffffffffffffffffffffffffff82169050919050565b60005b838110156200046f57808201518184015260208101905062000452565b838111156200047f576000848401525b50505050565b600060028204905060018216806200049e57607f821691505b60208210811415620004b557620004b4620004bb565b5b50919050565b7f4e487b7100000000000000000000000000000000000000000000000000000000600052602260045260246000fd5b6000601f19601f8301169050919050565b61393b806200050b6000396000f3fe608060405234801561001057600080fd5b50600436106101425760003560e01c80637c711b27116100b8578063b88d4fde1161007c578063b88d4fde14610365578063c298de7e14610381578063c87b56dd1461039f578063e985e9c5146103cf578063f2fde38b146103ff578063fedea0231461041b57610142565b80637c711b27146102bd5780638da5cb5b146102ef578063911fd8eb1461030d57806395d89b411461032b578063a22cb4651461034957610142565b806338d645761161010a57806338d64576146101fd57806342842e0e146102195780634e9e1ec6146102355780636352211e1461025357806370a0823114610283578063715018a6146102b357610142565b806301ffc9a71461014757806306fdde0314610177578063081812fc14610195578063095ea7b3146101c557806323b872dd146101e1575b600080fd5b610161600480360381019061015c919061261c565b610439565b60405161016e9190612c77565b60405180910390f35b61017f61051b565b60405161018c9190612c92565b60405180910390f35b6101af60048036038101906101aa91906126af565b6105ad565b6040516101bc9190612b72565b60405180910390f35b6101df60048036038101906101da91906125e0565b610632565b005b6101fb60048036038101906101f691906124da565b61074a565b005b6102176004803603810190610212919061266e565b6107aa565b005b610233600480360381019061022e91906124da565b610a43565b005b61023d610a63565b60405161024a9190612f69565b60405180910390f35b61026d600480360381019061026891906126af565b610a69565b60405161027a9190612b72565b60405180910390f35b61029d60048036038101906102989190612475565b610b1b565b6040516102aa9190612f69565b60405180910390f35b6102bb610bd3565b005b6102d760048036038101906102d291906126af565b610c5b565b6040516102e693929190612bd9565b60405180910390f35b6102f7610d3d565b6040516103049190612b72565b60405180910390f35b610315610d67565b6040516103229190612f69565b60405180910390f35b610333610d6d565b6040516103409190612c92565b60405180910390f35b610363600480360381019061035e91906125a4565b610dff565b005b61037f600480360381019061037a9190612529565b610e15565b005b610389610e77565b6040516103969190612f69565b60405180910390f35b6103b960048036038101906103b491906126af565b610e81565b6040516103c69190612c92565b60405180910390f35b6103e960048036038101906103e4919061249e565b610fd3565b6040516103f69190612c77565b60405180910390f35b61041960048036038101906104149190612475565b611067565b005b61042361115f565b6040516104309190612c55565b60405180910390f35b60007f80ac58cd000000000000000000000000000000000000000000000000000000007bffffffffffffffffffffffffffffffffffffffffffffffffffffffff1916827bffffffffffffffffffffffffffffffffffffffffffffffffffffffff1916148061050457507f5b5e139f000000000000000000000000000000000000000000000000000000007bffffffffffffffffffffffffffffffffffffffffffffffffffffffff1916827bffffffffffffffffffffffffffffffffffffffffffffffffffffffff1916145b8061051457506105138261134c565b5b9050919050565b60606000805461052a90613209565b80601f016020809104026020016040519081016040528092919081815260200182805461055690613209565b80156105a35780601f10610578576101008083540402835291602001916105a3565b820191906000526020600020905b81548152906001019060200180831161058657829003601f168201915b5050505050905090565b60006105b8826113b6565b6105f7576040517f08c379a00000000000000000000000000000000000000000000000000000000081526004016105ee90612ec9565b60405180910390fd5b6004600083815260200190815260200160002060009054906101000a900473ffffffffffffffffffffffffffffffffffffffff169050919050565b600061063d82610a69565b90508073ffffffffffffffffffffffffffffffffffffffff168373ffffffffffffffffffffffffffffffffffffffff1614156106ae576040517f08c379a00000000000000000000000000000000000000000000000000000000081526004016106a590612f29565b60405180910390fd5b8073ffffffffffffffffffffffffffffffffffffffff166106cd611422565b73ffffffffffffffffffffffffffffffffffffffff1614806106fc57506106fb816106f6611422565b610fd3565b5b61073b576040517f08c379a000000000000000000000000000000000000000000000000000000000815260040161073290612e09565b60405180910390fd5b610745838361142a565b505050565b61075b610755611422565b826114e3565b61079a576040517f08c379a000000000000000000000000000000000000000000000000000000000815260040161079190612f49565b60405180910390fd5b6107a58383836115c1565b505050565b6009546107b76008611828565b106107c157600080fd5b600b60003373ffffffffffffffffffffffffffffffffffffffff1673ffffffffffffffffffffffffffffffffffffffff16815260200190815260200160002060009054906101000a900460ff161561081857600080fd5b6108586040518060400160405280600b81526020017f4d696e74696e67204e46540000000000000000000000000000000000000000008152503383611836565b60006108646008611828565b9050600060405180606001604052803373ffffffffffffffffffffffffffffffffffffffff1681526020018481526020018381525090506108a533836118d5565b6108af82846118f3565b6108b96008611967565b6001600b60003373ffffffffffffffffffffffffffffffffffffffff1673ffffffffffffffffffffffffffffffffffffffff16815260200190815260200160002060006101000a81548160ff02191690831515021790555061091b6008611828565b600954610928919061311f565b600a81905550600c81908060018154018082558091505060019003906000526020600020906003020160009091909190915060008201518160000160006101000a81548173ffffffffffffffffffffffffffffffffffffffff021916908373ffffffffffffffffffffffffffffffffffffffff16021790555060208201518160010190805190602001906109bd929190612299565b506040820151816002015550507f89f273f7546784d1e53e910bceea74983bf6444b826671e5ecebf276132d2b393383856040516109fd93929190612c17565b60405180910390a17ff74c908d36eaad399b930a28fc128529b7ede42811b73b0e71a03f86ea475cb9600a54604051610a369190612f69565b60405180910390a1505050565b610a5e83838360405180602001604052806000815250610e15565b505050565b60095481565b6000806002600084815260200190815260200160002060009054906101000a900473ffffffffffffffffffffffffffffffffffffffff169050600073ffffffffffffffffffffffffffffffffffffffff168173ffffffffffffffffffffffffffffffffffffffff161415610b12576040517f08c379a0000000000000000000000000000000000000000000000000000000008152600401610b0990612e49565b60405180910390fd5b80915050919050565b60008073ffffffffffffffffffffffffffffffffffffffff168273ffffffffffffffffffffffffffffffffffffffff161415610b8c576040517f08c379a0000000000000000000000000000000000000000000000000000000008152600401610b8390612e29565b60405180910390fd5b600360008373ffffffffffffffffffffffffffffffffffffffff1673ffffffffffffffffffffffffffffffffffffffff168152602001908152602001600020549050919050565b610bdb611422565b73ffffffffffffffffffffffffffffffffffffffff16610bf9610d3d565b73ffffffffffffffffffffffffffffffffffffffff1614610c4f576040517f08c379a0000000000000000000000000000000000000000000000000000000008152600401610c4690612ee9565b60405180910390fd5b610c59600061197d565b565b600c8181548110610c6b57600080fd5b90600052602060002090600302016000915090508060000160009054906101000a900473ffffffffffffffffffffffffffffffffffffffff1690806001018054610cb490613209565b80601f0160208091040260200160405190810160405280929190818152602001828054610ce090613209565b8015610d2d5780601f10610d0257610100808354040283529160200191610d2d565b820191906000526020600020905b815481529060010190602001808311610d1057829003601f168201915b5050505050908060020154905083565b6000600760009054906101000a900473ffffffffffffffffffffffffffffffffffffffff16905090565b600a5481565b606060018054610d7c90613209565b80601f0160208091040260200160405190810160405280929190818152602001828054610da890613209565b8015610df55780601f10610dca57610100808354040283529160200191610df5565b820191906000526020600020905b815481529060010190602001808311610dd857829003601f168201915b5050505050905090565b610e11610e0a611422565b8383611a43565b5050565b610e26610e20611422565b836114e3565b610e65576040517f08c379a0000000000000000000000000000000000000000000000000000000008152600401610e5c90612f49565b60405180910390fd5b610e7184848484611bb0565b50505050565b6000600a54905090565b6060610e8c826113b6565b610ecb576040517f08c379a0000000000000000000000000000000000000000000000000000000008152600401610ec290612ea9565b60405180910390fd5b6000600660008481526020019081526020016000208054610eeb90613209565b80601f0160208091040260200160405190810160405280929190818152602001828054610f1790613209565b8015610f645780601f10610f3957610100808354040283529160200191610f64565b820191906000526020600020905b815481529060010190602001808311610f4757829003601f168201915b505050505090506000610f75611c0c565b9050600081511415610f8b578192505050610fce565b600082511115610fc0578082604051602001610fa8929190612b4e565b60405160208183030381529060405292505050610fce565b610fc984611c23565b925050505b919050565b6000600560008473ffffffffffffffffffffffffffffffffffffffff1673ffffffffffffffffffffffffffffffffffffffff16815260200190815260200160002060008373ffffffffffffffffffffffffffffffffffffffff1673ffffffffffffffffffffffffffffffffffffffff16815260200190815260200160002060009054906101000a900460ff16905092915050565b61106f611422565b73ffffffffffffffffffffffffffffffffffffffff1661108d610d3d565b73ffffffffffffffffffffffffffffffffffffffff16146110e3576040517f08c379a00000000000000000000000000000000000000000000000000000000081526004016110da90612ee9565b60405180910390fd5b600073ffffffffffffffffffffffffffffffffffffffff168173ffffffffffffffffffffffffffffffffffffffff161415611153576040517f08c379a000000000000000000000000000000000000000000000000000000000815260040161114a90612d49565b60405180910390fd5b61115c8161197d565b50565b6060600c805480602002602001604051908101604052809291908181526020016000905b828210156112a757838290600052602060002090600302016040518060600160405290816000820160009054906101000a900473ffffffffffffffffffffffffffffffffffffffff1673ffffffffffffffffffffffffffffffffffffffff1673ffffffffffffffffffffffffffffffffffffffff16815260200160018201805461120c90613209565b80601f016020809104026020016040519081016040528092919081815260200182805461123890613209565b80156112855780601f1061125a57610100808354040283529160200191611285565b820191906000526020600020905b81548152906001019060200180831161126857829003601f168201915b5050505050815260200160028201548152505081526020019060010190611183565b50505050905090565b61134882826040516024016112c6929190612cb4565b6040516020818303038152906040527f319af333000000000000000000000000000000000000000000000000000000007bffffffffffffffffffffffffffffffffffffffffffffffffffffffff19166020820180517bffffffffffffffffffffffffffffffffffffffffffffffffffffffff8381831617835250505050611cca565b5050565b60007f01ffc9a7000000000000000000000000000000000000000000000000000000007bffffffffffffffffffffffffffffffffffffffffffffffffffffffff1916827bffffffffffffffffffffffffffffffffffffffffffffffffffffffff1916149050919050565b60008073ffffffffffffffffffffffffffffffffffffffff166002600084815260200190815260200160002060009054906101000a900473ffffffffffffffffffffffffffffffffffffffff1673ffffffffffffffffffffffffffffffffffffffff1614159050919050565b600033905090565b816004600083815260200190815260200160002060006101000a81548173ffffffffffffffffffffffffffffffffffffffff021916908373ffffffffffffffffffffffffffffffffffffffff160217905550808273ffffffffffffffffffffffffffffffffffffffff1661149d83610a69565b73ffffffffffffffffffffffffffffffffffffffff167f8c5be1e5ebec7d5bd14f71427d1e84f3dd0314c0f7b2291e5b200ac8c7c3b92560405160405180910390a45050565b60006114ee826113b6565b61152d576040517f08c379a000000000000000000000000000000000000000000000000000000000815260040161152490612de9565b60405180910390fd5b600061153883610a69565b90508073ffffffffffffffffffffffffffffffffffffffff168473ffffffffffffffffffffffffffffffffffffffff1614806115a757508373ffffffffffffffffffffffffffffffffffffffff1661158f846105ad565b73ffffffffffffffffffffffffffffffffffffffff16145b806115b857506115b78185610fd3565b5b91505092915050565b8273ffffffffffffffffffffffffffffffffffffffff166115e182610a69565b73ffffffffffffffffffffffffffffffffffffffff1614611637576040517f08c379a000000000000000000000000000000000000000000000000000000000815260040161162e90612d69565b60405180910390fd5b600073ffffffffffffffffffffffffffffffffffffffff168273ffffffffffffffffffffffffffffffffffffffff1614156116a7576040517f08c379a000000000000000000000000000000000000000000000000000000000815260040161169e90612da9565b60405180910390fd5b6116b2838383611cf3565b6116bd60008261142a565b6001600360008573ffffffffffffffffffffffffffffffffffffffff1673ffffffffffffffffffffffffffffffffffffffff168152602001908152602001600020600082825461170d919061311f565b925050819055506001600360008473ffffffffffffffffffffffffffffffffffffffff1673ffffffffffffffffffffffffffffffffffffffff16815260200190815260200160002060008282546117649190613098565b92505081905550816002600083815260200190815260200160002060006101000a81548173ffffffffffffffffffffffffffffffffffffffff021916908373ffffffffffffffffffffffffffffffffffffffff160217905550808273ffffffffffffffffffffffffffffffffffffffff168473ffffffffffffffffffffffffffffffffffffffff167fddf252ad1be2c89b69c2b068fc378daa952ba7f163c4a11628f55a4df523b3ef60405160405180910390a4611823838383611cf8565b505050565b600081600001549050919050565b6118d083838360405160240161184e93929190612ce4565b6040516020818303038152906040527fe0e9ad4f000000000000000000000000000000000000000000000000000000007bffffffffffffffffffffffffffffffffffffffffffffffffffffffff19166020820180517bffffffffffffffffffffffffffffffffffffffffffffffffffffffff8381831617835250505050611cca565b505050565b6118ef828260405180602001604052806000815250611cfd565b5050565b6118fc826113b6565b61193b576040517f08c379a000000000000000000000000000000000000000000000000000000000815260040161193290612e69565b60405180910390fd5b80600660008481526020019081526020016000209080519060200190611962929190612299565b505050565b6001816000016000828254019250508190555050565b6000600760009054906101000a900473ffffffffffffffffffffffffffffffffffffffff16905081600760006101000a81548173ffffffffffffffffffffffffffffffffffffffff021916908373ffffffffffffffffffffffffffffffffffffffff1602179055508173ffffffffffffffffffffffffffffffffffffffff168173ffffffffffffffffffffffffffffffffffffffff167f8be0079c531659141344cd1fd0a4f28419497f9722a3daafe3b4186f6b6457e060405160405180910390a35050565b8173ffffffffffffffffffffffffffffffffffffffff168373ffffffffffffffffffffffffffffffffffffffff161415611ab2576040517f08c379a0000000000000000000000000000000000000000000000000000000008152600401611aa990612dc9565b60405180910390fd5b80600560008573ffffffffffffffffffffffffffffffffffffffff1673ffffffffffffffffffffffffffffffffffffffff16815260200190815260200160002060008473ffffffffffffffffffffffffffffffffffffffff1673ffffffffffffffffffffffffffffffffffffffff16815260200190815260200160002060006101000a81548160ff0219169083151502179055508173ffffffffffffffffffffffffffffffffffffffff168373ffffffffffffffffffffffffffffffffffffffff167f17307eab39ab6107e8899845ad3d59bd9653f200f220920489ca2b5937696c3183604051611ba39190612c77565b60405180910390a3505050565b611bbb8484846115c1565b611bc784848484611d58565b611c06576040517f08c379a0000000000000000000000000000000000000000000000000000000008152600401611bfd90612d29565b60405180910390fd5b50505050565b606060405180602001604052806000815250905090565b6060611c2e826113b6565b611c6d576040517f08c379a0000000000000000000000000000000000000000000000000000000008152600401611c6490612f09565b60405180910390fd5b6000611c77611c0c565b90506000815111611c975760405180602001604052806000815250611cc2565b80611ca184611eef565b604051602001611cb2929190612b4e565b6040516020818303038152906040525b915050919050565b60008151905060006a636f6e736f6c652e6c6f679050602083016000808483855afa5050505050565b505050565b505050565b611d07838361209c565b611d146000848484611d58565b611d53576040517f08c379a0000000000000000000000000000000000000000000000000000000008152600401611d4a90612d29565b60405180910390fd5b505050565b6000611d798473ffffffffffffffffffffffffffffffffffffffff16612276565b15611ee2578373ffffffffffffffffffffffffffffffffffffffff1663150b7a02611da2611422565b8786866040518563ffffffff1660e01b8152600401611dc49493929190612b8d565b602060405180830381600087803b158015611dde57600080fd5b505af1925050508015611e0f57506040513d601f19601f82011682018060405250810190611e0c9190612645565b60015b611e92573d8060008114611e3f576040519150601f19603f3d011682016040523d82523d6000602084013e611e44565b606091505b50600081511415611e8a576040517f08c379a0000000000000000000000000000000000000000000000000000000008152600401611e8190612d29565b60405180910390fd5b805181602001fd5b63150b7a0260e01b7bffffffffffffffffffffffffffffffffffffffffffffffffffffffff1916817bffffffffffffffffffffffffffffffffffffffffffffffffffffffff191614915050611ee7565b600190505b949350505050565b60606000821415611f37576040518060400160405280600181526020017f30000000000000000000000000000000000000000000000000000000000000008152509050612097565b600082905060005b60008214611f69578080611f529061326c565b915050600a82611f6291906130ee565b9150611f3f565b60008167ffffffffffffffff811115611fab577f4e487b7100000000000000000000000000000000000000000000000000000000600052604160045260246000fd5b6040519080825280601f01601f191660200182016040528015611fdd5781602001600182028036833780820191505090505b5090505b6000851461209057600182611ff6919061311f565b9150600a8561200591906132b5565b60306120119190613098565b60f81b81838151811061204d577f4e487b7100000000000000000000000000000000000000000000000000000000600052603260045260246000fd5b60200101907effffffffffffffffffffffffffffffffffffffffffffffffffffffffffffff1916908160001a905350600a8561208991906130ee565b9450611fe1565b8093505050505b919050565b600073ffffffffffffffffffffffffffffffffffffffff168273ffffffffffffffffffffffffffffffffffffffff16141561210c576040517f08c379a000000000000000000000000000000000000000000000000000000000815260040161210390612e89565b60405180910390fd5b612115816113b6565b15612155576040517f08c379a000000000000000000000000000000000000000000000000000000000815260040161214c90612d89565b60405180910390fd5b61216160008383611cf3565b6001600360008473ffffffffffffffffffffffffffffffffffffffff1673ffffffffffffffffffffffffffffffffffffffff16815260200190815260200160002060008282546121b19190613098565b92505081905550816002600083815260200190815260200160002060006101000a81548173ffffffffffffffffffffffffffffffffffffffff021916908373ffffffffffffffffffffffffffffffffffffffff160217905550808273ffffffffffffffffffffffffffffffffffffffff16600073ffffffffffffffffffffffffffffffffffffffff167fddf252ad1be2c89b69c2b068fc378daa952ba7f163c4a11628f55a4df523b3ef60405160405180910390a461227260008383611cf8565b5050565b6000808273ffffffffffffffffffffffffffffffffffffffff163b119050919050565b8280546122a590613209565b90600052602060002090601f0160209004810192826122c7576000855561230e565b82601f106122e057805160ff191683800117855561230e565b8280016001018555821561230e579182015b8281111561230d5782518255916020019190600101906122f2565b5b50905061231b919061231f565b5090565b5b80821115612338576000816000905550600101612320565b5090565b600061234f61234a84612fa9565b612f84565b90508281526020810184848401111561236757600080fd5b6123728482856131c7565b509392505050565b600061238d61238884612fda565b612f84565b9050828152602081018484840111156123a557600080fd5b6123b08482856131c7565b509392505050565b6000813590506123c7816138a9565b92915050565b6000813590506123dc816138c0565b92915050565b6000813590506123f1816138d7565b92915050565b600081519050612406816138d7565b92915050565b600082601f83011261241d57600080fd5b813561242d84826020860161233c565b91505092915050565b600082601f83011261244757600080fd5b813561245784826020860161237a565b91505092915050565b60008135905061246f816138ee565b92915050565b60006020828403121561248757600080fd5b6000612495848285016123b8565b91505092915050565b600080604083850312156124b157600080fd5b60006124bf858286016123b8565b92505060206124d0858286016123b8565b9150509250929050565b6000806000606084860312156124ef57600080fd5b60006124fd868287016123b8565b935050602061250e868287016123b8565b925050604061251f86828701612460565b9150509250925092565b6000806000806080858703121561253f57600080fd5b600061254d878288016123b8565b945050602061255e878288016123b8565b935050604061256f87828801612460565b925050606085013567ffffffffffffffff81111561258c57600080fd5b6125988782880161240c565b91505092959194509250565b600080604083850312156125b757600080fd5b60006125c5858286016123b8565b92505060206125d6858286016123cd565b9150509250929050565b600080604083850312156125f357600080fd5b6000612601858286016123b8565b925050602061261285828601612460565b9150509250929050565b60006020828403121561262e57600080fd5b600061263c848285016123e2565b91505092915050565b60006020828403121561265757600080fd5b6000612665848285016123f7565b91505092915050565b60006020828403121561268057600080fd5b600082013567ffffffffffffffff81111561269a57600080fd5b6126a684828501612436565b91505092915050565b6000602082840312156126c157600080fd5b60006126cf84828501612460565b91505092915050565b60006126e48383612ae0565b905092915050565b6126f581613153565b82525050565b61270481613153565b82525050565b60006127158261301b565b61271f8185613049565b9350836020820285016127318561300b565b8060005b8581101561276d578484038952815161274e85826126d8565b94506127598361303c565b925060208a01995050600181019050612735565b50829750879550505050505092915050565b61278881613165565b82525050565b600061279982613026565b6127a3818561305a565b93506127b38185602086016131d6565b6127bc816133a2565b840191505092915050565b60006127d282613031565b6127dc818561306b565b93506127ec8185602086016131d6565b6127f5816133a2565b840191505092915050565b600061280b82613031565b612815818561307c565b93506128258185602086016131d6565b61282e816133a2565b840191505092915050565b600061284482613031565b61284e818561308d565b935061285e8185602086016131d6565b80840191505092915050565b600061287760328361307c565b9150612882826133b3565b604082019050919050565b600061289a60268361307c565b91506128a582613402565b604082019050919050565b60006128bd60258361307c565b91506128c882613451565b604082019050919050565b60006128e0601c8361307c565b91506128eb826134a0565b602082019050919050565b600061290360248361307c565b915061290e826134c9565b604082019050919050565b600061292660198361307c565b915061293182613518565b602082019050919050565b6000612949602c8361307c565b915061295482613541565b604082019050919050565b600061296c60388361307c565b915061297782613590565b604082019050919050565b600061298f602a8361307c565b915061299a826135df565b604082019050919050565b60006129b260298361307c565b91506129bd8261362e565b604082019050919050565b60006129d5602e8361307c565b91506129e08261367d565b604082019050919050565b60006129f860208361307c565b9150612a03826136cc565b602082019050919050565b6000612a1b60318361307c565b9150612a26826136f5565b604082019050919050565b6000612a3e602c8361307c565b9150612a4982613744565b604082019050919050565b6000612a6160208361307c565b9150612a6c82613793565b602082019050919050565b6000612a84602f8361307c565b9150612a8f826137bc565b604082019050919050565b6000612aa760218361307c565b9150612ab28261380b565b604082019050919050565b6000612aca60318361307c565b9150612ad58261385a565b604082019050919050565b6000606083016000830151612af860008601826126ec565b5060208301518482036020860152612b1082826127c7565b9150506040830151612b256040860182612b30565b508091505092915050565b612b39816131bd565b82525050565b612b48816131bd565b82525050565b6000612b5a8285612839565b9150612b668284612839565b91508190509392505050565b6000602082019050612b8760008301846126fb565b92915050565b6000608082019050612ba260008301876126fb565b612baf60208301866126fb565b612bbc6040830185612b3f565b8181036060830152612bce818461278e565b905095945050505050565b6000606082019050612bee60008301866126fb565b8181036020830152612c008185612800565b9050612c0f6040830184612b3f565b949350505050565b6000606082019050612c2c60008301866126fb565b612c396020830185612b3f565b8181036040830152612c4b8184612800565b9050949350505050565b60006020820190508181036000830152612c6f818461270a565b905092915050565b6000602082019050612c8c600083018461277f565b92915050565b60006020820190508181036000830152612cac8184612800565b905092915050565b60006040820190508181036000830152612cce8185612800565b9050612cdd60208301846126fb565b9392505050565b60006060820190508181036000830152612cfe8186612800565b9050612d0d60208301856126fb565b8181036040830152612d1f8184612800565b9050949350505050565b60006020820190508181036000830152612d428161286a565b9050919050565b60006020820190508181036000830152612d628161288d565b9050919050565b60006020820190508181036000830152612d82816128b0565b9050919050565b60006020820190508181036000830152612da2816128d3565b9050919050565b60006020820190508181036000830152612dc2816128f6565b9050919050565b60006020820190508181036000830152612de281612919565b9050919050565b60006020820190508181036000830152612e028161293c565b9050919050565b60006020820190508181036000830152612e228161295f565b9050919050565b60006020820190508181036000830152612e4281612982565b9050919050565b60006020820190508181036000830152612e62816129a5565b9050919050565b60006020820190508181036000830152612e82816129c8565b9050919050565b60006020820190508181036000830152612ea2816129eb565b9050919050565b60006020820190508181036000830152612ec281612a0e565b9050919050565b60006020820190508181036000830152612ee281612a31565b9050919050565b60006020820190508181036000830152612f0281612a54565b9050919050565b60006020820190508181036000830152612f2281612a77565b9050919050565b60006020820190508181036000830152612f4281612a9a565b9050919050565b60006020820190508181036000830152612f6281612abd565b9050919050565b6000602082019050612f7e6000830184612b3f565b92915050565b6000612f8e612f9f565b9050612f9a828261323b565b919050565b6000604051905090565b600067ffffffffffffffff821115612fc457612fc3613373565b5b612fcd826133a2565b9050602081019050919050565b600067ffffffffffffffff821115612ff557612ff4613373565b5b612ffe826133a2565b9050602081019050919050565b6000819050602082019050919050565b600081519050919050565b600081519050919050565b600081519050919050565b6000602082019050919050565b600082825260208201905092915050565b600082825260208201905092915050565b600082825260208201905092915050565b600082825260208201905092915050565b600081905092915050565b60006130a3826131bd565b91506130ae836131bd565b9250827fffffffffffffffffffffffffffffffffffffffffffffffffffffffffffffffff038211156130e3576130e26132e6565b5b828201905092915050565b60006130f9826131bd565b9150613104836131bd565b92508261311457613113613315565b5b828204905092915050565b600061312a826131bd565b9150613135836131bd565b925082821015613148576131476132e6565b5b828203905092915050565b600061315e8261319d565b9050919050565b60008115159050919050565b60007fffffffff0000000000000000000000000000000000000000000000000000000082169050919050565b600073ffffffffffffffffffffffffffffffffffffffff82169050919050565b6000819050919050565b82818337600083830152505050565b60005b838110156131f45780820151818401526020810190506131d9565b83811115613203576000848401525b50505050565b6000600282049050600182168061322157607f821691505b6020821081141561323557613234613344565b5b50919050565b613244826133a2565b810181811067ffffffffffffffff8211171561326357613262613373565b5b80604052505050565b6000613277826131bd565b91507fffffffffffffffffffffffffffffffffffffffffffffffffffffffffffffffff8214156132aa576132a96132e6565b5b600182019050919050565b60006132c0826131bd565b91506132cb836131bd565b9250826132db576132da613315565b5b828206905092915050565b7f4e487b7100000000000000000000000000000000000000000000000000000000600052601160045260246000fd5b7f4e487b7100000000000000000000000000000000000000000000000000000000600052601260045260246000fd5b7f4e487b7100000000000000000000000000000000000000000000000000000000600052602260045260246000fd5b7f4e487b7100000000000000000000000000000000000000000000000000000000600052604160045260246000fd5b6000601f19601f8301169050919050565b7f4552433732313a207472616e7366657220746f206e6f6e20455243373231526560008201527f63656976657220696d706c656d656e7465720000000000000000000000000000602082015250565b7f4f776e61626c653a206e6577206f776e657220697320746865207a65726f206160008201527f6464726573730000000000000000000000000000000000000000000000000000602082015250565b7f4552433732313a207472616e736665722066726f6d20696e636f72726563742060008201527f6f776e6572000000000000000000000000000000000000000000000000000000602082015250565b7f4552433732313a20746f6b656e20616c7265616479206d696e74656400000000600082015250565b7f4552433732313a207472616e7366657220746f20746865207a65726f2061646460008201527f7265737300000000000000000000000000000000000000000000000000000000602082015250565b7f4552433732313a20617070726f766520746f2063616c6c657200000000000000600082015250565b7f4552433732313a206f70657261746f7220717565727920666f72206e6f6e657860008201527f697374656e7420746f6b656e0000000000000000000000000000000000000000602082015250565b7f4552433732313a20617070726f76652063616c6c6572206973206e6f74206f7760008201527f6e6572206e6f7220617070726f76656420666f7220616c6c0000000000000000602082015250565b7f4552433732313a2062616c616e636520717565727920666f7220746865207a6560008201527f726f206164647265737300000000000000000000000000000000000000000000602082015250565b7f4552433732313a206f776e657220717565727920666f72206e6f6e657869737460008201527f656e7420746f6b656e0000000000000000000000000000000000000000000000602082015250565b7f45524337323155524953746f726167653a2055524920736574206f66206e6f6e60008201527f6578697374656e7420746f6b656e000000000000000000000000000000000000602082015250565b7f4552433732313a206d696e7420746f20746865207a65726f2061646472657373600082015250565b7f45524337323155524953746f726167653a2055524920717565727920666f722060008201527f6e6f6e6578697374656e7420746f6b656e000000000000000000000000000000602082015250565b7f4552433732313a20617070726f76656420717565727920666f72206e6f6e657860008201527f697374656e7420746f6b656e0000000000000000000000000000000000000000602082015250565b7f4f776e61626c653a2063616c6c6572206973206e6f7420746865206f776e6572600082015250565b7f4552433732314d657461646174613a2055524920717565727920666f72206e6f60008201527f6e6578697374656e7420746f6b656e0000000000000000000000000000000000602082015250565b7f4552433732313a20617070726f76616c20746f2063757272656e74206f776e6560008201527f7200000000000000000000000000000000000000000000000000000000000000602082015250565b7f4552433732313a207472616e736665722063616c6c6572206973206e6f74206f60008201527f776e6572206e6f7220617070726f766564000000000000000000000000000000602082015250565b6138b281613153565b81146138bd57600080fd5b50565b6138c981613165565b81146138d457600080fd5b50565b6138e081613171565b81146138eb57600080fd5b50565b6138f7816131bd565b811461390257600080fd5b5056fea2646970667358221220b6c2764e81263fd7b366ec210c24206f89fed71e7a082c912c19d59067eff79a64736f6c63430008040033",
  "linkReferences": {},
  "deployedLinkReferences": {}
}