{
  "_format": "hh-sol-artifact-1",
  "contractName": "FilecoinTicketNFT",
  "sourceName": "contracts/FilecoinTicketNFT.sol",
  "abi": [
    {
      "inputs": [],
      "stateMutability": "nonpayable",
      "type": "constructor"
    },
    {
      "anonymous": false,
      "inputs": [
        {
          "indexed": true,
          "internalType": "address",
          "name": "owner",
          "type": "address"
        },
        {
          "indexed": true,
          "internalType": "address",
          "name": "approved",
          "type": "address"
        },
        {
          "indexed": true,
          "internalType": "uint256",
          "name": "tokenId",
          "type": "uint256"
        }
      ],
      "name": "Approval",
      "type": "event"
    },
    {
      "anonymous": false,
      "inputs": [
        {
          "indexed": true,
          "internalType": "address",
          "name": "owner",
          "type": "address"
        },
        {
          "indexed": true,
          "internalType": "address",
          "name": "operator",
          "type": "address"
        },
        {
          "indexed": false,
          "internalType": "bool",
          "name": "approved",
          "type": "bool"
        }
      ],
      "name": "ApprovalForAll",
      "type": "event"
    },
    {
      "anonymous": false,
      "inputs": [
        {
          "indexed": false,
          "internalType": "address",
          "name": "sender",
          "type": "address"
        },
        {
          "indexed": false,
          "internalType": "uint256",
          "name": "tokenId",
          "type": "uint256"
        },
        {
          "indexed": false,
          "internalType": "string",
          "name": "tokenURI",
          "type": "string"
        }
      ],
      "name": "NewFilecoinNFTMinted",
      "type": "event"
    },
    {
      "anonymous": false,
      "inputs": [
        {
          "indexed": true,
          "internalType": "address",
          "name": "previousOwner",
          "type": "address"
        },
        {
          "indexed": true,
          "internalType": "address",
          "name": "newOwner",
          "type": "address"
        }
      ],
      "name": "OwnershipTransferred",
      "type": "event"
    },
    {
      "anonymous": false,
      "inputs": [
        {
          "indexed": false,
          "internalType": "uint256",
          "name": "remainingMintableNFTs",
          "type": "uint256"
        }
      ],
      "name": "RemainingMintableNFTChange",
      "type": "event"
    },
    {
      "anonymous": false,
      "inputs": [
        {
          "indexed": true,
          "internalType": "address",
          "name": "from",
          "type": "address"
        },
        {
          "indexed": true,
          "internalType": "address",
          "name": "to",
          "type": "address"
        },
        {
          "indexed": true,
          "internalType": "uint256",
          "name": "tokenId",
          "type": "uint256"
        }
      ],
      "name": "Transfer",
      "type": "event"
    },
    {
      "inputs": [
        {
          "internalType": "address",
          "name": "to",
          "type": "address"
        },
        {
          "internalType": "uint256",
          "name": "tokenId",
          "type": "uint256"
        }
      ],
      "name": "approve",
      "outputs": [],
      "stateMutability": "nonpayable",
      "type": "function"
    },
    {
      "inputs": [
        {
          "internalType": "address",
          "name": "owner",
          "type": "address"
        }
      ],
      "name": "balanceOf",
      "outputs": [
        {
          "internalType": "uint256",
          "name": "",
          "type": "uint256"
        }
      ],
      "stateMutability": "view",
      "type": "function"
    },
    {
      "inputs": [
        {
          "internalType": "uint256",
          "name": "tokenId",
          "type": "uint256"
        }
      ],
      "name": "getApproved",
      "outputs": [
        {
          "internalType": "address",
          "name": "",
          "type": "address"
        }
      ],
      "stateMutability": "view",
      "type": "function"
    },
    {
      "inputs": [],
      "name": "getNFTCollection",
      "outputs": [
        {
          "components": [
            {
              "internalType": "address",
              "name": "owner",
              "type": "address"
            },
            {
              "internalType": "string",
              "name": "tokenURI",
              "type": "string"
            },
            {
              "internalType": "uint256",
              "name": "tokenId",
              "type": "uint256"
            }
          ],
          "internalType": "struct FilecoinTicketNFT.myNFT[]",
          "name": "",
          "type": "tuple[]"
        }
      ],
      "stateMutability": "view",
      "type": "function"
    },
    {
      "inputs": [],
      "name": "getRemainingMintableNFTs",
      "outputs": [
        {
          "internalType": "uint256",
          "name": "",
          "type": "uint256"
        }
      ],
      "stateMutability": "view",
      "type": "function"
    },
    {
      "inputs": [
        {
          "internalType": "address",
          "name": "owner",
          "type": "address"
        },
        {
          "internalType": "address",
          "name": "operator",
          "type": "address"
        }
      ],
      "name": "isApprovedForAll",
      "outputs": [
        {
          "internalType": "bool",
          "name": "",
          "type": "bool"
        }
      ],
      "stateMutability": "view",
      "type": "function"
    },
    {
      "inputs": [],
      "name": "maxNFTs",
      "outputs": [
        {
          "internalType": "uint256",
          "name": "",
          "type": "uint256"
        }
      ],
      "stateMutability": "view",
      "type": "function"
    },
    {
      "inputs": [
        {
          "internalType": "string",
          "name": "ipfsURI",
          "type": "string"
        }
      ],
      "name": "mintMyNFT",
      "outputs": [],
      "stateMutability": "nonpayable",
      "type": "function"
    },
    {
      "inputs": [],
      "name": "name",
      "outputs": [
        {
          "internalType": "string",
          "name": "",
          "type": "string"
        }
      ],
      "stateMutability": "view",
      "type": "function"
    },
    {
      "inputs": [
        {
          "internalType": "uint256",
          "name": "",
          "type": "uint256"
        }
      ],
      "name": "nftCollection",
      "outputs": [
        {
          "internalType": "address",
          "name": "owner",
          "type": "address"
        },
        {
          "internalType": "string",
          "name": "tokenURI",
          "type": "string"
        },
        {
          "internalType": "uint256",
          "name": "tokenId",
          "type": "uint256"
        }
      ],
      "stateMutability": "view",
      "type": "function"
    },
    {
      "inputs": [],
      "name": "owner",
      "outputs": [
        {
          "internalType": "address",
          "name": "",
          "type": "address"
        }
      ],
      "stateMutability": "view",
      "type": "function"
    },
    {
      "inputs": [
        {
          "internalType": "uint256",
          "name": "tokenId",
          "type": "uint256"
        }
      ],
      "name": "ownerOf",
      "outputs": [
        {
          "internalType": "address",
          "name": "",
          "type": "address"
        }
      ],
      "stateMutability": "view",
      "type": "function"
    },
    {
      "inputs": [
        {
          "internalType": "address",
          "name": "_a",
          "type": "address"
        }
      ],
      "name": "ownsTicketNFT",
      "outputs": [
        {
          "internalType": "bool",
          "name": "",
          "type": "bool"
        }
      ],
      "stateMutability": "view",
      "type": "function"
    },
    {
      "inputs": [],
      "name": "remainingMintableNFTs",
      "outputs": [
        {
          "internalType": "uint256",
          "name": "",
          "type": "uint256"
        }
      ],
      "stateMutability": "view",
      "type": "function"
    },
    {
      "inputs": [],
      "name": "renounceOwnership",
      "outputs": [],
      "stateMutability": "nonpayable",
      "type": "function"
    },
    {
      "inputs": [
        {
          "internalType": "address",
          "name": "from",
          "type": "address"
        },
        {
          "internalType": "address",
          "name": "to",
          "type": "address"
        },
        {
          "internalType": "uint256",
          "name": "tokenId",
          "type": "uint256"
        }
      ],
      "name": "safeTransferFrom",
      "outputs": [],
      "stateMutability": "nonpayable",
      "type": "function"
    },
    {
      "inputs": [
        {
          "internalType": "address",
          "name": "from",
          "type": "address"
        },
        {
          "internalType": "address",
          "name": "to",
          "type": "address"
        },
        {
          "internalType": "uint256",
          "name": "tokenId",
          "type": "uint256"
        },
        {
          "internalType": "bytes",
          "name": "_data",
          "type": "bytes"
        }
      ],
      "name": "safeTransferFrom",
      "outputs": [],
      "stateMutability": "nonpayable",
      "type": "function"
    },
    {
      "inputs": [
        {
          "internalType": "address",
          "name": "operator",
          "type": "address"
        },
        {
          "internalType": "bool",
          "name": "approved",
          "type": "bool"
        }
      ],
      "name": "setApprovalForAll",
      "outputs": [],
      "stateMutability": "nonpayable",
      "type": "function"
    },
    {
      "inputs": [
        {
          "internalType": "bytes4",
          "name": "interfaceId",
          "type": "bytes4"
        }
      ],
      "name": "supportsInterface",
      "outputs": [
        {
          "internalType": "bool",
          "name": "",
          "type": "bool"
        }
      ],
      "stateMutability": "view",
      "type": "function"
    },
    {
      "inputs": [],
      "name": "symbol",
      "outputs": [
        {
          "internalType": "string",
          "name": "",
          "type": "string"
        }
      ],
      "stateMutability": "view",
      "type": "function"
    },
    {
      "inputs": [
        {
          "internalType": "uint256",
          "name": "tokenId",
          "type": "uint256"
        }
      ],
      "name": "tokenURI",
      "outputs": [
        {
          "internalType": "string",
          "name": "",
          "type": "string"
        }
      ],
      "stateMutability": "view",
      "type": "function"
    },
    {
      "inputs": [
        {
          "internalType": "address",
          "name": "from",
          "type": "address"
        },
        {
          "internalType": "address",
          "name": "to",
          "type": "address"
        },
        {
          "internalType": "uint256",
          "name": "tokenId",
          "type": "uint256"
        }
      ],
      "name": "transferFrom",
      "outputs": [],
      "stateMutability": "nonpayable",
      "type": "function"
    },
    {
      "inputs": [
        {
          "internalType": "address",
          "name": "newOwner",
          "type": "address"
        }
      ],
      "name": "transferOwnership",
      "outputs": [],
      "stateMutability": "nonpayable",
      "type": "function"
    }
  ],
  "bytecode": "0x60806040523480156200001157600080fd5b506040518060400160405280601381526020017f4e465420486f75736520535853572032303232000000000000000000000000008152506040518060400160405280601281526020017f46696c65636f696e2053585357204e4654730000000000000000000000000000815250816000908051906020019062000096929190620002c9565b508060019080519060200190620000af929190620002c9565b505050620000d2620000c66200012c60201b60201c565b6200013460201b60201c565b6200011e6040518060400160405280602081526020017f54686973206973206d79204e465420636f6e747261637420616464726573733a81525030620001fa60201b620013771760201c565b6064600981905550620004fb565b600033905090565b6000600760009054906101000a900473ffffffffffffffffffffffffffffffffffffffff16905081600760006101000a81548173ffffffffffffffffffffffffffffffffffffffff021916908373ffffffffffffffffffffffffffffffffffffffff1602179055508173ffffffffffffffffffffffffffffffffffffffff168173ffffffffffffffffffffffffffffffffffffffff167f8be0079c531659141344cd1fd0a4f28419497f9722a3daafe3b4186f6b6457e060405160405180910390a35050565b6200029c828260405160240162000213929190620003cb565b6040516020818303038152906040527f319af333000000000000000000000000000000000000000000000000000000007bffffffffffffffffffffffffffffffffffffffffffffffffffffffff19166020820180517bffffffffffffffffffffffffffffffffffffffffffffffffffffffff8381831617835250505050620002a060201b60201c565b5050565b60008151905060006a636f6e736f6c652e6c6f679050602083016000808483855afa5050505050565b828054620002d79062000485565b90600052602060002090601f016020900481019282620002fb576000855562000347565b82601f106200031657805160ff191683800117855562000347565b8280016001018555821562000347579182015b828111156200034657825182559160200191906001019062000329565b5b5090506200035691906200035a565b5090565b5b80821115620003755760008160009055506001016200035b565b5090565b62000384816200041b565b82525050565b60006200039782620003ff565b620003a381856200040a565b9350620003b58185602086016200044f565b620003c081620004ea565b840191505092915050565b60006040820190508181036000830152620003e781856200038a565b9050620003f8602083018462000379565b9392505050565b600081519050919050565b600082825260208201905092915050565b600062000428826200042f565b9050919050565b600073ffffffffffffffffffffffffffffffffffffffff82169050919050565b60005b838110156200046f57808201518184015260208101905062000452565b838111156200047f576000848401525b50505050565b600060028204905060018216806200049e57607f821691505b60208210811415620004b557620004b4620004bb565b5b50919050565b7f4e487b7100000000000000000000000000000000000000000000000000000000600052602260045260246000fd5b6000601f19601f8301169050919050565b613a94806200050b6000396000f3fe608060405234801561001057600080fd5b506004361061014d5760003560e01c8063715018a6116100c3578063b88d4fde1161007c578063b88d4fde146103a0578063c298de7e146103bc578063c87b56dd146103da578063e985e9c51461040a578063f2fde38b1461043a578063fedea023146104565761014d565b8063715018a6146102ee5780637c711b27146102f85780638da5cb5b1461032a578063911fd8eb1461034857806395d89b4114610366578063a22cb465146103845761014d565b806338d645761161011557806338d645761461020857806342842e0e146102245780634e9e1ec6146102405780636352211e1461025e578063701bd2701461028e57806370a08231146102be5761014d565b806301ffc9a71461015257806306fdde0314610182578063081812fc146101a0578063095ea7b3146101d057806323b872dd146101ec575b600080fd5b61016c600480360381019061016791906126e3565b610474565b6040516101799190612d61565b60405180910390f35b61018a610556565b6040516101979190612d7c565b60405180910390f35b6101ba60048036038101906101b59190612776565b6105e8565b6040516101c79190612c5c565b60405180910390f35b6101ea60048036038101906101e591906126a7565b61066d565b005b610206600480360381019061020191906125a1565b610785565b005b610222600480360381019061021d9190612735565b6107e5565b005b61023e600480360381019061023991906125a1565b610ab4565b005b610248610ad4565b6040516102559190613073565b60405180910390f35b61027860048036038101906102739190612776565b610ada565b6040516102859190612c5c565b60405180910390f35b6102a860048036038101906102a3919061253c565b610b8c565b6040516102b59190612d61565b60405180910390f35b6102d860048036038101906102d3919061253c565b610be2565b6040516102e59190613073565b60405180910390f35b6102f6610c9a565b005b610312600480360381019061030d9190612776565b610d22565b60405161032193929190612cc3565b60405180910390f35b610332610e04565b60405161033f9190612c5c565b60405180910390f35b610350610e2e565b60405161035d9190613073565b60405180910390f35b61036e610e34565b60405161037b9190612d7c565b60405180910390f35b61039e6004803603810190610399919061266b565b610ec6565b005b6103ba60048036038101906103b591906125f0565b610edc565b005b6103c4610f3e565b6040516103d19190613073565b60405180910390f35b6103f460048036038101906103ef9190612776565b610f48565b6040516104019190612d7c565b60405180910390f35b610424600480360381019061041f9190612565565b61109a565b6040516104319190612d61565b60405180910390f35b610454600480360381019061044f919061253c565b61112e565b005b61045e611226565b60405161046b9190612d3f565b60405180910390f35b60007f80ac58cd000000000000000000000000000000000000000000000000000000007bffffffffffffffffffffffffffffffffffffffffffffffffffffffff1916827bffffffffffffffffffffffffffffffffffffffffffffffffffffffff1916148061053f57507f5b5e139f000000000000000000000000000000000000000000000000000000007bffffffffffffffffffffffffffffffffffffffffffffffffffffffff1916827bffffffffffffffffffffffffffffffffffffffffffffffffffffffff1916145b8061054f575061054e82611413565b5b9050919050565b60606000805461056590613313565b80601f016020809104026020016040519081016040528092919081815260200182805461059190613313565b80156105de5780601f106105b3576101008083540402835291602001916105de565b820191906000526020600020905b8154815290600101906020018083116105c157829003601f168201915b5050505050905090565b60006105f38261147d565b610632576040517f08c379a000000000000000000000000000000000000000000000000000000000815260040161062990612fd3565b60405180910390fd5b6004600083815260200190815260200160002060009054906101000a900473ffffffffffffffffffffffffffffffffffffffff169050919050565b600061067882610ada565b90508073ffffffffffffffffffffffffffffffffffffffff168373ffffffffffffffffffffffffffffffffffffffff1614156106e9576040517f08c379a00000000000000000000000000000000000000000000000000000000081526004016106e090613033565b60405180910390fd5b8073ffffffffffffffffffffffffffffffffffffffff166107086114e9565b73ffffffffffffffffffffffffffffffffffffffff1614806107375750610736816107316114e9565b61109a565b5b610776576040517f08c379a000000000000000000000000000000000000000000000000000000000815260040161076d90612f13565b60405180910390fd5b61078083836114f1565b505050565b6107966107906114e9565b826115aa565b6107d5576040517f08c379a00000000000000000000000000000000000000000000000000000000081526004016107cc90613053565b60405180910390fd5b6107e0838383611688565b505050565b6009546107f260086118ef565b106107fc57600080fd5b600b60003373ffffffffffffffffffffffffffffffffffffffff1673ffffffffffffffffffffffffffffffffffffffff16815260200190815260200160002060009054906101000a900460ff1615610889576040517f08c379a000000000000000000000000000000000000000000000000000000000815260040161088090612e13565b60405180910390fd5b6108c96040518060400160405280600b81526020017f4d696e74696e67204e465400000000000000000000000000000000000000000081525033836118fd565b60006108d560086118ef565b9050600060405180606001604052803373ffffffffffffffffffffffffffffffffffffffff168152602001848152602001838152509050610916338361199c565b61092082846119ba565b61092a6008611a2e565b6001600b60003373ffffffffffffffffffffffffffffffffffffffff1673ffffffffffffffffffffffffffffffffffffffff16815260200190815260200160002060006101000a81548160ff02191690831515021790555061098c60086118ef565b6009546109999190613229565b600a81905550600c81908060018154018082558091505060019003906000526020600020906003020160009091909190915060008201518160000160006101000a81548173ffffffffffffffffffffffffffffffffffffffff021916908373ffffffffffffffffffffffffffffffffffffffff1602179055506020820151816001019080519060200190610a2e929190612360565b506040820151816002015550507f89f273f7546784d1e53e910bceea74983bf6444b826671e5ecebf276132d2b39338385604051610a6e93929190612d01565b60405180910390a17ff74c908d36eaad399b930a28fc128529b7ede42811b73b0e71a03f86ea475cb9600a54604051610aa79190613073565b60405180910390a1505050565b610acf83838360405180602001604052806000815250610edc565b505050565b60095481565b6000806002600084815260200190815260200160002060009054906101000a900473ffffffffffffffffffffffffffffffffffffffff169050600073ffffffffffffffffffffffffffffffffffffffff168173ffffffffffffffffffffffffffffffffffffffff161415610b83576040517f08c379a0000000000000000000000000000000000000000000000000000000008152600401610b7a90612f53565b60405180910390fd5b80915050919050565b6000600b60008373ffffffffffffffffffffffffffffffffffffffff1673ffffffffffffffffffffffffffffffffffffffff16815260200190815260200160002060009054906101000a900460ff169050919050565b60008073ffffffffffffffffffffffffffffffffffffffff168273ffffffffffffffffffffffffffffffffffffffff161415610c53576040517f08c379a0000000000000000000000000000000000000000000000000000000008152600401610c4a90612f33565b60405180910390fd5b600360008373ffffffffffffffffffffffffffffffffffffffff1673ffffffffffffffffffffffffffffffffffffffff168152602001908152602001600020549050919050565b610ca26114e9565b73ffffffffffffffffffffffffffffffffffffffff16610cc0610e04565b73ffffffffffffffffffffffffffffffffffffffff1614610d16576040517f08c379a0000000000000000000000000000000000000000000000000000000008152600401610d0d90612ff3565b60405180910390fd5b610d206000611a44565b565b600c8181548110610d3257600080fd5b90600052602060002090600302016000915090508060000160009054906101000a900473ffffffffffffffffffffffffffffffffffffffff1690806001018054610d7b90613313565b80601f0160208091040260200160405190810160405280929190818152602001828054610da790613313565b8015610df45780601f10610dc957610100808354040283529160200191610df4565b820191906000526020600020905b815481529060010190602001808311610dd757829003601f168201915b5050505050908060020154905083565b6000600760009054906101000a900473ffffffffffffffffffffffffffffffffffffffff16905090565b600a5481565b606060018054610e4390613313565b80601f0160208091040260200160405190810160405280929190818152602001828054610e6f90613313565b8015610ebc5780601f10610e9157610100808354040283529160200191610ebc565b820191906000526020600020905b815481529060010190602001808311610e9f57829003601f168201915b5050505050905090565b610ed8610ed16114e9565b8383611b0a565b5050565b610eed610ee76114e9565b836115aa565b610f2c576040517f08c379a0000000000000000000000000000000000000000000000000000000008152600401610f2390613053565b60405180910390fd5b610f3884848484611c77565b50505050565b6000600a54905090565b6060610f538261147d565b610f92576040517f08c379a0000000000000000000000000000000000000000000000000000000008152600401610f8990612fb3565b60405180910390fd5b6000600660008481526020019081526020016000208054610fb290613313565b80601f0160208091040260200160405190810160405280929190818152602001828054610fde90613313565b801561102b5780601f106110005761010080835404028352916020019161102b565b820191906000526020600020905b81548152906001019060200180831161100e57829003601f168201915b50505050509050600061103c611cd3565b9050600081511415611052578192505050611095565b60008251111561108757808260405160200161106f929190612c38565b60405160208183030381529060405292505050611095565b61109084611cea565b925050505b919050565b6000600560008473ffffffffffffffffffffffffffffffffffffffff1673ffffffffffffffffffffffffffffffffffffffff16815260200190815260200160002060008373ffffffffffffffffffffffffffffffffffffffff1673ffffffffffffffffffffffffffffffffffffffff16815260200190815260200160002060009054906101000a900460ff16905092915050565b6111366114e9565b73ffffffffffffffffffffffffffffffffffffffff16611154610e04565b73ffffffffffffffffffffffffffffffffffffffff16146111aa576040517f08c379a00000000000000000000000000000000000000000000000000000000081526004016111a190612ff3565b60405180910390fd5b600073ffffffffffffffffffffffffffffffffffffffff168173ffffffffffffffffffffffffffffffffffffffff16141561121a576040517f08c379a000000000000000000000000000000000000000000000000000000000815260040161121190612e53565b60405180910390fd5b61122381611a44565b50565b6060600c805480602002602001604051908101604052809291908181526020016000905b8282101561136e57838290600052602060002090600302016040518060600160405290816000820160009054906101000a900473ffffffffffffffffffffffffffffffffffffffff1673ffffffffffffffffffffffffffffffffffffffff1673ffffffffffffffffffffffffffffffffffffffff1681526020016001820180546112d390613313565b80601f01602080910402602001604051908101604052809291908181526020018280546112ff90613313565b801561134c5780601f106113215761010080835404028352916020019161134c565b820191906000526020600020905b81548152906001019060200180831161132f57829003601f168201915b505050505081526020016002820154815250508152602001906001019061124a565b50505050905090565b61140f828260405160240161138d929190612d9e565b6040516020818303038152906040527f319af333000000000000000000000000000000000000000000000000000000007bffffffffffffffffffffffffffffffffffffffffffffffffffffffff19166020820180517bffffffffffffffffffffffffffffffffffffffffffffffffffffffff8381831617835250505050611d91565b5050565b60007f01ffc9a7000000000000000000000000000000000000000000000000000000007bffffffffffffffffffffffffffffffffffffffffffffffffffffffff1916827bffffffffffffffffffffffffffffffffffffffffffffffffffffffff1916149050919050565b60008073ffffffffffffffffffffffffffffffffffffffff166002600084815260200190815260200160002060009054906101000a900473ffffffffffffffffffffffffffffffffffffffff1673ffffffffffffffffffffffffffffffffffffffff1614159050919050565b600033905090565b816004600083815260200190815260200160002060006101000a81548173ffffffffffffffffffffffffffffffffffffffff021916908373ffffffffffffffffffffffffffffffffffffffff160217905550808273ffffffffffffffffffffffffffffffffffffffff1661156483610ada565b73ffffffffffffffffffffffffffffffffffffffff167f8c5be1e5ebec7d5bd14f71427d1e84f3dd0314c0f7b2291e5b200ac8c7c3b92560405160405180910390a45050565b60006115b58261147d565b6115f4576040517f08c379a00000000000000000000000000000000000000000000000000000000081526004016115eb90612ef3565b60405180910390fd5b60006115ff83610ada565b90508073ffffffffffffffffffffffffffffffffffffffff168473ffffffffffffffffffffffffffffffffffffffff16148061166e57508373ffffffffffffffffffffffffffffffffffffffff16611656846105e8565b73ffffffffffffffffffffffffffffffffffffffff16145b8061167f575061167e818561109a565b5b91505092915050565b8273ffffffffffffffffffffffffffffffffffffffff166116a882610ada565b73ffffffffffffffffffffffffffffffffffffffff16146116fe576040517f08c379a00000000000000000000000000000000000000000000000000000000081526004016116f590612e73565b60405180910390fd5b600073ffffffffffffffffffffffffffffffffffffffff168273ffffffffffffffffffffffffffffffffffffffff16141561176e576040517f08c379a000000000000000000000000000000000000000000000000000000000815260040161176590612eb3565b60405180910390fd5b611779838383611dba565b6117846000826114f1565b6001600360008573ffffffffffffffffffffffffffffffffffffffff1673ffffffffffffffffffffffffffffffffffffffff16815260200190815260200160002060008282546117d49190613229565b925050819055506001600360008473ffffffffffffffffffffffffffffffffffffffff1673ffffffffffffffffffffffffffffffffffffffff168152602001908152602001600020600082825461182b91906131a2565b92505081905550816002600083815260200190815260200160002060006101000a81548173ffffffffffffffffffffffffffffffffffffffff021916908373ffffffffffffffffffffffffffffffffffffffff160217905550808273ffffffffffffffffffffffffffffffffffffffff168473ffffffffffffffffffffffffffffffffffffffff167fddf252ad1be2c89b69c2b068fc378daa952ba7f163c4a11628f55a4df523b3ef60405160405180910390a46118ea838383611dbf565b505050565b600081600001549050919050565b61199783838360405160240161191593929190612dce565b6040516020818303038152906040527fe0e9ad4f000000000000000000000000000000000000000000000000000000007bffffffffffffffffffffffffffffffffffffffffffffffffffffffff19166020820180517bffffffffffffffffffffffffffffffffffffffffffffffffffffffff8381831617835250505050611d91565b505050565b6119b6828260405180602001604052806000815250611dc4565b5050565b6119c38261147d565b611a02576040517f08c379a00000000000000000000000000000000000000000000000000000000081526004016119f990612f73565b60405180910390fd5b80600660008481526020019081526020016000209080519060200190611a29929190612360565b505050565b6001816000016000828254019250508190555050565b6000600760009054906101000a900473ffffffffffffffffffffffffffffffffffffffff16905081600760006101000a81548173ffffffffffffffffffffffffffffffffffffffff021916908373ffffffffffffffffffffffffffffffffffffffff1602179055508173ffffffffffffffffffffffffffffffffffffffff168173ffffffffffffffffffffffffffffffffffffffff167f8be0079c531659141344cd1fd0a4f28419497f9722a3daafe3b4186f6b6457e060405160405180910390a35050565b8173ffffffffffffffffffffffffffffffffffffffff168373ffffffffffffffffffffffffffffffffffffffff161415611b79576040517f08c379a0000000000000000000000000000000000000000000000000000000008152600401611b7090612ed3565b60405180910390fd5b80600560008573ffffffffffffffffffffffffffffffffffffffff1673ffffffffffffffffffffffffffffffffffffffff16815260200190815260200160002060008473ffffffffffffffffffffffffffffffffffffffff1673ffffffffffffffffffffffffffffffffffffffff16815260200190815260200160002060006101000a81548160ff0219169083151502179055508173ffffffffffffffffffffffffffffffffffffffff168373ffffffffffffffffffffffffffffffffffffffff167f17307eab39ab6107e8899845ad3d59bd9653f200f220920489ca2b5937696c3183604051611c6a9190612d61565b60405180910390a3505050565b611c82848484611688565b611c8e84848484611e1f565b611ccd576040517f08c379a0000000000000000000000000000000000000000000000000000000008152600401611cc490612e33565b60405180910390fd5b50505050565b606060405180602001604052806000815250905090565b6060611cf58261147d565b611d34576040517f08c379a0000000000000000000000000000000000000000000000000000000008152600401611d2b90613013565b60405180910390fd5b6000611d3e611cd3565b90506000815111611d5e5760405180602001604052806000815250611d89565b80611d6884611fb6565b604051602001611d79929190612c38565b6040516020818303038152906040525b915050919050565b60008151905060006a636f6e736f6c652e6c6f679050602083016000808483855afa5050505050565b505050565b505050565b611dce8383612163565b611ddb6000848484611e1f565b611e1a576040517f08c379a0000000000000000000000000000000000000000000000000000000008152600401611e1190612e33565b60405180910390fd5b505050565b6000611e408473ffffffffffffffffffffffffffffffffffffffff1661233d565b15611fa9578373ffffffffffffffffffffffffffffffffffffffff1663150b7a02611e696114e9565b8786866040518563ffffffff1660e01b8152600401611e8b9493929190612c77565b602060405180830381600087803b158015611ea557600080fd5b505af1925050508015611ed657506040513d601f19601f82011682018060405250810190611ed3919061270c565b60015b611f59573d8060008114611f06576040519150601f19603f3d011682016040523d82523d6000602084013e611f0b565b606091505b50600081511415611f51576040517f08c379a0000000000000000000000000000000000000000000000000000000008152600401611f4890612e33565b60405180910390fd5b805181602001fd5b63150b7a0260e01b7bffffffffffffffffffffffffffffffffffffffffffffffffffffffff1916817bffffffffffffffffffffffffffffffffffffffffffffffffffffffff191614915050611fae565b600190505b949350505050565b60606000821415611ffe576040518060400160405280600181526020017f3000000000000000000000000000000000000000000000000000000000000000815250905061215e565b600082905060005b6000821461203057808061201990613376565b915050600a8261202991906131f8565b9150612006565b60008167ffffffffffffffff811115612072577f4e487b7100000000000000000000000000000000000000000000000000000000600052604160045260246000fd5b6040519080825280601f01601f1916602001820160405280156120a45781602001600182028036833780820191505090505b5090505b60008514612157576001826120bd9190613229565b9150600a856120cc91906133bf565b60306120d891906131a2565b60f81b818381518110612114577f4e487b7100000000000000000000000000000000000000000000000000000000600052603260045260246000fd5b60200101907effffffffffffffffffffffffffffffffffffffffffffffffffffffffffffff1916908160001a905350600a8561215091906131f8565b94506120a8565b8093505050505b919050565b600073ffffffffffffffffffffffffffffffffffffffff168273ffffffffffffffffffffffffffffffffffffffff1614156121d3576040517f08c379a00000000000000000000000000000000000000000000000000000000081526004016121ca90612f93565b60405180910390fd5b6121dc8161147d565b1561221c576040517f08c379a000000000000000000000000000000000000000000000000000000000815260040161221390612e93565b60405180910390fd5b61222860008383611dba565b6001600360008473ffffffffffffffffffffffffffffffffffffffff1673ffffffffffffffffffffffffffffffffffffffff168152602001908152602001600020600082825461227891906131a2565b92505081905550816002600083815260200190815260200160002060006101000a81548173ffffffffffffffffffffffffffffffffffffffff021916908373ffffffffffffffffffffffffffffffffffffffff160217905550808273ffffffffffffffffffffffffffffffffffffffff16600073ffffffffffffffffffffffffffffffffffffffff167fddf252ad1be2c89b69c2b068fc378daa952ba7f163c4a11628f55a4df523b3ef60405160405180910390a461233960008383611dbf565b5050565b6000808273ffffffffffffffffffffffffffffffffffffffff163b119050919050565b82805461236c90613313565b90600052602060002090601f01602090048101928261238e57600085556123d5565b82601f106123a757805160ff19168380011785556123d5565b828001600101855582156123d5579182015b828111156123d45782518255916020019190600101906123b9565b5b5090506123e291906123e6565b5090565b5b808211156123ff5760008160009055506001016123e7565b5090565b6000612416612411846130b3565b61308e565b90508281526020810184848401111561242e57600080fd5b6124398482856132d1565b509392505050565b600061245461244f846130e4565b61308e565b90508281526020810184848401111561246c57600080fd5b6124778482856132d1565b509392505050565b60008135905061248e81613a02565b92915050565b6000813590506124a381613a19565b92915050565b6000813590506124b881613a30565b92915050565b6000815190506124cd81613a30565b92915050565b600082601f8301126124e457600080fd5b81356124f4848260208601612403565b91505092915050565b600082601f83011261250e57600080fd5b813561251e848260208601612441565b91505092915050565b60008135905061253681613a47565b92915050565b60006020828403121561254e57600080fd5b600061255c8482850161247f565b91505092915050565b6000806040838503121561257857600080fd5b60006125868582860161247f565b92505060206125978582860161247f565b9150509250929050565b6000806000606084860312156125b657600080fd5b60006125c48682870161247f565b93505060206125d58682870161247f565b92505060406125e686828701612527565b9150509250925092565b6000806000806080858703121561260657600080fd5b60006126148782880161247f565b94505060206126258782880161247f565b935050604061263687828801612527565b925050606085013567ffffffffffffffff81111561265357600080fd5b61265f878288016124d3565b91505092959194509250565b6000806040838503121561267e57600080fd5b600061268c8582860161247f565b925050602061269d85828601612494565b9150509250929050565b600080604083850312156126ba57600080fd5b60006126c88582860161247f565b92505060206126d985828601612527565b9150509250929050565b6000602082840312156126f557600080fd5b6000612703848285016124a9565b91505092915050565b60006020828403121561271e57600080fd5b600061272c848285016124be565b91505092915050565b60006020828403121561274757600080fd5b600082013567ffffffffffffffff81111561276157600080fd5b61276d848285016124fd565b91505092915050565b60006020828403121561278857600080fd5b600061279684828501612527565b91505092915050565b60006127ab8383612bca565b905092915050565b6127bc8161325d565b82525050565b6127cb8161325d565b82525050565b60006127dc82613125565b6127e68185613153565b9350836020820285016127f885613115565b8060005b858110156128345784840389528151612815858261279f565b945061282083613146565b925060208a019950506001810190506127fc565b50829750879550505050505092915050565b61284f8161326f565b82525050565b600061286082613130565b61286a8185613164565b935061287a8185602086016132e0565b612883816134ac565b840191505092915050565b60006128998261313b565b6128a38185613175565b93506128b38185602086016132e0565b6128bc816134ac565b840191505092915050565b60006128d28261313b565b6128dc8185613186565b93506128ec8185602086016132e0565b6128f5816134ac565b840191505092915050565b600061290b8261313b565b6129158185613197565b93506129258185602086016132e0565b80840191505092915050565b600061293e602583613186565b9150612949826134bd565b604082019050919050565b6000612961603283613186565b915061296c8261350c565b604082019050919050565b6000612984602683613186565b915061298f8261355b565b604082019050919050565b60006129a7602583613186565b91506129b2826135aa565b604082019050919050565b60006129ca601c83613186565b91506129d5826135f9565b602082019050919050565b60006129ed602483613186565b91506129f882613622565b604082019050919050565b6000612a10601983613186565b9150612a1b82613671565b602082019050919050565b6000612a33602c83613186565b9150612a3e8261369a565b604082019050919050565b6000612a56603883613186565b9150612a61826136e9565b604082019050919050565b6000612a79602a83613186565b9150612a8482613738565b604082019050919050565b6000612a9c602983613186565b9150612aa782613787565b604082019050919050565b6000612abf602e83613186565b9150612aca826137d6565b604082019050919050565b6000612ae2602083613186565b9150612aed82613825565b602082019050919050565b6000612b05603183613186565b9150612b108261384e565b604082019050919050565b6000612b28602c83613186565b9150612b338261389d565b604082019050919050565b6000612b4b602083613186565b9150612b56826138ec565b602082019050919050565b6000612b6e602f83613186565b9150612b7982613915565b604082019050919050565b6000612b91602183613186565b9150612b9c82613964565b604082019050919050565b6000612bb4603183613186565b9150612bbf826139b3565b604082019050919050565b6000606083016000830151612be260008601826127b3565b5060208301518482036020860152612bfa828261288e565b9150506040830151612c0f6040860182612c1a565b508091505092915050565b612c23816132c7565b82525050565b612c32816132c7565b82525050565b6000612c448285612900565b9150612c508284612900565b91508190509392505050565b6000602082019050612c7160008301846127c2565b92915050565b6000608082019050612c8c60008301876127c2565b612c9960208301866127c2565b612ca66040830185612c29565b8181036060830152612cb88184612855565b905095945050505050565b6000606082019050612cd860008301866127c2565b8181036020830152612cea81856128c7565b9050612cf96040830184612c29565b949350505050565b6000606082019050612d1660008301866127c2565b612d236020830185612c29565b8181036040830152612d3581846128c7565b9050949350505050565b60006020820190508181036000830152612d5981846127d1565b905092915050565b6000602082019050612d766000830184612846565b92915050565b60006020820190508181036000830152612d9681846128c7565b905092915050565b60006040820190508181036000830152612db881856128c7565b9050612dc760208301846127c2565b9392505050565b60006060820190508181036000830152612de881866128c7565b9050612df760208301856127c2565b8181036040830152612e0981846128c7565b9050949350505050565b60006020820190508181036000830152612e2c81612931565b9050919050565b60006020820190508181036000830152612e4c81612954565b9050919050565b60006020820190508181036000830152612e6c81612977565b9050919050565b60006020820190508181036000830152612e8c8161299a565b9050919050565b60006020820190508181036000830152612eac816129bd565b9050919050565b60006020820190508181036000830152612ecc816129e0565b9050919050565b60006020820190508181036000830152612eec81612a03565b9050919050565b60006020820190508181036000830152612f0c81612a26565b9050919050565b60006020820190508181036000830152612f2c81612a49565b9050919050565b60006020820190508181036000830152612f4c81612a6c565b9050919050565b60006020820190508181036000830152612f6c81612a8f565b9050919050565b60006020820190508181036000830152612f8c81612ab2565b9050919050565b60006020820190508181036000830152612fac81612ad5565b9050919050565b60006020820190508181036000830152612fcc81612af8565b9050919050565b60006020820190508181036000830152612fec81612b1b565b9050919050565b6000602082019050818103600083015261300c81612b3e565b9050919050565b6000602082019050818103600083015261302c81612b61565b9050919050565b6000602082019050818103600083015261304c81612b84565b9050919050565b6000602082019050818103600083015261306c81612ba7565b9050919050565b60006020820190506130886000830184612c29565b92915050565b60006130986130a9565b90506130a48282613345565b919050565b6000604051905090565b600067ffffffffffffffff8211156130ce576130cd61347d565b5b6130d7826134ac565b9050602081019050919050565b600067ffffffffffffffff8211156130ff576130fe61347d565b5b613108826134ac565b9050602081019050919050565b6000819050602082019050919050565b600081519050919050565b600081519050919050565b600081519050919050565b6000602082019050919050565b600082825260208201905092915050565b600082825260208201905092915050565b600082825260208201905092915050565b600082825260208201905092915050565b600081905092915050565b60006131ad826132c7565b91506131b8836132c7565b9250827fffffffffffffffffffffffffffffffffffffffffffffffffffffffffffffffff038211156131ed576131ec6133f0565b5b828201905092915050565b6000613203826132c7565b915061320e836132c7565b92508261321e5761321d61341f565b5b828204905092915050565b6000613234826132c7565b915061323f836132c7565b925082821015613252576132516133f0565b5b828203905092915050565b6000613268826132a7565b9050919050565b60008115159050919050565b60007fffffffff0000000000000000000000000000000000000000000000000000000082169050919050565b600073ffffffffffffffffffffffffffffffffffffffff82169050919050565b6000819050919050565b82818337600083830152505050565b60005b838110156132fe5780820151818401526020810190506132e3565b8381111561330d576000848401525b50505050565b6000600282049050600182168061332b57607f821691505b6020821081141561333f5761333e61344e565b5b50919050565b61334e826134ac565b810181811067ffffffffffffffff8211171561336d5761336c61347d565b5b80604052505050565b6000613381826132c7565b91507fffffffffffffffffffffffffffffffffffffffffffffffffffffffffffffffff8214156133b4576133b36133f0565b5b600182019050919050565b60006133ca826132c7565b91506133d5836132c7565b9250826133e5576133e461341f565b5b828206905092915050565b7f4e487b7100000000000000000000000000000000000000000000000000000000600052601160045260246000fd5b7f4e487b7100000000000000000000000000000000000000000000000000000000600052601260045260246000fd5b7f4e487b7100000000000000000000000000000000000000000000000000000000600052602260045260246000fd5b7f4e487b7100000000000000000000000000000000000000000000000000000000600052604160045260246000fd5b6000601f19601f8301169050919050565b7f596f75206861766520616c7265616479206d696e7465642061207469636b657460008201527f204e465421000000000000000000000000000000000000000000000000000000602082015250565b7f4552433732313a207472616e7366657220746f206e6f6e20455243373231526560008201527f63656976657220696d706c656d656e7465720000000000000000000000000000602082015250565b7f4f776e61626c653a206e6577206f776e657220697320746865207a65726f206160008201527f6464726573730000000000000000000000000000000000000000000000000000602082015250565b7f4552433732313a207472616e736665722066726f6d20696e636f72726563742060008201527f6f776e6572000000000000000000000000000000000000000000000000000000602082015250565b7f4552433732313a20746f6b656e20616c7265616479206d696e74656400000000600082015250565b7f4552433732313a207472616e7366657220746f20746865207a65726f2061646460008201527f7265737300000000000000000000000000000000000000000000000000000000602082015250565b7f4552433732313a20617070726f766520746f2063616c6c657200000000000000600082015250565b7f4552433732313a206f70657261746f7220717565727920666f72206e6f6e657860008201527f697374656e7420746f6b656e0000000000000000000000000000000000000000602082015250565b7f4552433732313a20617070726f76652063616c6c6572206973206e6f74206f7760008201527f6e6572206e6f7220617070726f76656420666f7220616c6c0000000000000000602082015250565b7f4552433732313a2062616c616e636520717565727920666f7220746865207a6560008201527f726f206164647265737300000000000000000000000000000000000000000000602082015250565b7f4552433732313a206f776e657220717565727920666f72206e6f6e657869737460008201527f656e7420746f6b656e0000000000000000000000000000000000000000000000602082015250565b7f45524337323155524953746f726167653a2055524920736574206f66206e6f6e60008201527f6578697374656e7420746f6b656e000000000000000000000000000000000000602082015250565b7f4552433732313a206d696e7420746f20746865207a65726f2061646472657373600082015250565b7f45524337323155524953746f726167653a2055524920717565727920666f722060008201527f6e6f6e6578697374656e7420746f6b656e000000000000000000000000000000602082015250565b7f4552433732313a20617070726f76656420717565727920666f72206e6f6e657860008201527f697374656e7420746f6b656e0000000000000000000000000000000000000000602082015250565b7f4f776e61626c653a2063616c6c6572206973206e6f7420746865206f776e6572600082015250565b7f4552433732314d657461646174613a2055524920717565727920666f72206e6f60008201527f6e6578697374656e7420746f6b656e0000000000000000000000000000000000602082015250565b7f4552433732313a20617070726f76616c20746f2063757272656e74206f776e6560008201527f7200000000000000000000000000000000000000000000000000000000000000602082015250565b7f4552433732313a207472616e736665722063616c6c6572206973206e6f74206f60008201527f776e6572206e6f7220617070726f766564000000000000000000000000000000602082015250565b613a0b8161325d565b8114613a1657600080fd5b50565b613a228161326f565b8114613a2d57600080fd5b50565b613a398161327b565b8114613a4457600080fd5b50565b613a50816132c7565b8114613a5b57600080fd5b5056fea264697066735822122076a20df3c0ca2ab470c1ff926620899a79c44f3062adcce589d17b40412b5ba364736f6c63430008040033",
  "linkReferences": {},
  "deployedLinkReferences": {}
}