{
  "_format": "hh-sol-artifact-1",
  "contractName": "FilecoinNFTHackOLD",
  "sourceName": "contracts/Test.sol",
  "abi": [
    {
      "inputs": [],
      "stateMutability": "nonpayable",
      "type": "constructor"
    },
    {
      "anonymous": false,
      "inputs": [
        {
          "indexed": true,
          "internalType": "address",
          "name": "owner",
          "type": "address"
        },
        {
          "indexed": true,
          "internalType": "address",
          "name": "approved",
          "type": "address"
        },
        {
          "indexed": true,
          "internalType": "uint256",
          "name": "tokenId",
          "type": "uint256"
        }
      ],
      "name": "Approval",
      "type": "event"
    },
    {
      "anonymous": false,
      "inputs": [
        {
          "indexed": true,
          "internalType": "address",
          "name": "owner",
          "type": "address"
        },
        {
          "indexed": true,
          "internalType": "address",
          "name": "operator",
          "type": "address"
        },
        {
          "indexed": false,
          "internalType": "bool",
          "name": "approved",
          "type": "bool"
        }
      ],
      "name": "ApprovalForAll",
      "type": "event"
    },
    {
      "anonymous": false,
      "inputs": [
        {
          "indexed": false,
          "internalType": "address",
          "name": "sender",
          "type": "address"
        },
        {
          "indexed": false,
          "internalType": "uint256",
          "name": "tokenId",
          "type": "uint256"
        },
        {
          "indexed": false,
          "internalType": "string",
          "name": "tokenURI",
          "type": "string"
        }
      ],
      "name": "NewFilecoinNFTMinted",
      "type": "event"
    },
    {
      "anonymous": false,
      "inputs": [
        {
          "indexed": true,
          "internalType": "address",
          "name": "from",
          "type": "address"
        },
        {
          "indexed": true,
          "internalType": "address",
          "name": "to",
          "type": "address"
        },
        {
          "indexed": true,
          "internalType": "uint256",
          "name": "tokenId",
          "type": "uint256"
        }
      ],
      "name": "Transfer",
      "type": "event"
    },
    {
      "inputs": [
        {
          "internalType": "address",
          "name": "to",
          "type": "address"
        },
        {
          "internalType": "uint256",
          "name": "tokenId",
          "type": "uint256"
        }
      ],
      "name": "approve",
      "outputs": [],
      "stateMutability": "nonpayable",
      "type": "function"
    },
    {
      "inputs": [
        {
          "internalType": "address",
          "name": "owner",
          "type": "address"
        }
      ],
      "name": "balanceOf",
      "outputs": [
        {
          "internalType": "uint256",
          "name": "",
          "type": "uint256"
        }
      ],
      "stateMutability": "view",
      "type": "function"
    },
    {
      "inputs": [
        {
          "internalType": "uint256",
          "name": "tokenId",
          "type": "uint256"
        }
      ],
      "name": "getApproved",
      "outputs": [
        {
          "internalType": "address",
          "name": "",
          "type": "address"
        }
      ],
      "stateMutability": "view",
      "type": "function"
    },
    {
      "inputs": [],
      "name": "getNFTCollection",
      "outputs": [
        {
          "components": [
            {
              "internalType": "address",
              "name": "owner",
              "type": "address"
            },
            {
              "internalType": "string",
              "name": "tokenURI",
              "type": "string"
            },
            {
              "internalType": "uint256",
              "name": "tokenId",
              "type": "uint256"
            }
          ],
          "internalType": "struct FilecoinNFTHackOLD.myNFT[]",
          "name": "",
          "type": "tuple[]"
        }
      ],
      "stateMutability": "view",
      "type": "function"
    },
    {
      "inputs": [
        {
          "internalType": "address",
          "name": "owner",
          "type": "address"
        },
        {
          "internalType": "address",
          "name": "operator",
          "type": "address"
        }
      ],
      "name": "isApprovedForAll",
      "outputs": [
        {
          "internalType": "bool",
          "name": "",
          "type": "bool"
        }
      ],
      "stateMutability": "view",
      "type": "function"
    },
    {
      "inputs": [],
      "name": "maxNFTs",
      "outputs": [
        {
          "internalType": "uint256",
          "name": "",
          "type": "uint256"
        }
      ],
      "stateMutability": "view",
      "type": "function"
    },
    {
      "inputs": [
        {
          "internalType": "string",
          "name": "ipfsURI",
          "type": "string"
        }
      ],
      "name": "mintMyNFT",
      "outputs": [],
      "stateMutability": "nonpayable",
      "type": "function"
    },
    {
      "inputs": [],
      "name": "name",
      "outputs": [
        {
          "internalType": "string",
          "name": "",
          "type": "string"
        }
      ],
      "stateMutability": "view",
      "type": "function"
    },
    {
      "inputs": [
        {
          "internalType": "uint256",
          "name": "",
          "type": "uint256"
        }
      ],
      "name": "nftCollection",
      "outputs": [
        {
          "internalType": "address",
          "name": "owner",
          "type": "address"
        },
        {
          "internalType": "string",
          "name": "tokenURI",
          "type": "string"
        },
        {
          "internalType": "uint256",
          "name": "tokenId",
          "type": "uint256"
        }
      ],
      "stateMutability": "view",
      "type": "function"
    },
    {
      "inputs": [
        {
          "internalType": "uint256",
          "name": "tokenId",
          "type": "uint256"
        }
      ],
      "name": "ownerOf",
      "outputs": [
        {
          "internalType": "address",
          "name": "",
          "type": "address"
        }
      ],
      "stateMutability": "view",
      "type": "function"
    },
    {
      "inputs": [],
      "name": "remainingMintableNFTs",
      "outputs": [
        {
          "internalType": "uint256",
          "name": "",
          "type": "uint256"
        }
      ],
      "stateMutability": "view",
      "type": "function"
    },
    {
      "inputs": [
        {
          "internalType": "address",
          "name": "from",
          "type": "address"
        },
        {
          "internalType": "address",
          "name": "to",
          "type": "address"
        },
        {
          "internalType": "uint256",
          "name": "tokenId",
          "type": "uint256"
        }
      ],
      "name": "safeTransferFrom",
      "outputs": [],
      "stateMutability": "nonpayable",
      "type": "function"
    },
    {
      "inputs": [
        {
          "internalType": "address",
          "name": "from",
          "type": "address"
        },
        {
          "internalType": "address",
          "name": "to",
          "type": "address"
        },
        {
          "internalType": "uint256",
          "name": "tokenId",
          "type": "uint256"
        },
        {
          "internalType": "bytes",
          "name": "_data",
          "type": "bytes"
        }
      ],
      "name": "safeTransferFrom",
      "outputs": [],
      "stateMutability": "nonpayable",
      "type": "function"
    },
    {
      "inputs": [
        {
          "internalType": "address",
          "name": "operator",
          "type": "address"
        },
        {
          "internalType": "bool",
          "name": "approved",
          "type": "bool"
        }
      ],
      "name": "setApprovalForAll",
      "outputs": [],
      "stateMutability": "nonpayable",
      "type": "function"
    },
    {
      "inputs": [
        {
          "internalType": "bytes4",
          "name": "interfaceId",
          "type": "bytes4"
        }
      ],
      "name": "supportsInterface",
      "outputs": [
        {
          "internalType": "bool",
          "name": "",
          "type": "bool"
        }
      ],
      "stateMutability": "view",
      "type": "function"
    },
    {
      "inputs": [],
      "name": "symbol",
      "outputs": [
        {
          "internalType": "string",
          "name": "",
          "type": "string"
        }
      ],
      "stateMutability": "view",
      "type": "function"
    },
    {
      "inputs": [
        {
          "internalType": "uint256",
          "name": "tokenId",
          "type": "uint256"
        }
      ],
      "name": "tokenURI",
      "outputs": [
        {
          "internalType": "string",
          "name": "",
          "type": "string"
        }
      ],
      "stateMutability": "view",
      "type": "function"
    },
    {
      "inputs": [
        {
          "internalType": "address",
          "name": "from",
          "type": "address"
        },
        {
          "internalType": "address",
          "name": "to",
          "type": "address"
        },
        {
          "internalType": "uint256",
          "name": "tokenId",
          "type": "uint256"
        }
      ],
      "name": "transferFrom",
      "outputs": [],
      "stateMutability": "nonpayable",
      "type": "function"
    }
  ],
  "bytecode": "0x60806040523480156200001157600080fd5b506040518060400160405280601581526020017f457468476c6f62616c204e46544861636b3230323200000000000000000000008152506040518060400160405280601581526020017f46696c65636f696e2053746172746572204e4654730000000000000000000000815250816000908051906020019062000096929190620001d7565b508060019080519060200190620000af929190620001d7565b505050620000fd6040518060400160405280601781526020017f54686973206973206d79204e465420636f6e74726163740000000000000000008152506200010b60201b62000f461760201c565b6064600881905550620003b4565b620001ab81604051602401620001229190620002c8565b6040516020818303038152906040527f41304fac000000000000000000000000000000000000000000000000000000007bffffffffffffffffffffffffffffffffffffffffffffffffffffffff19166020820180517bffffffffffffffffffffffffffffffffffffffffffffffffffffffff8381831617835250505050620001ae60201b60201c565b50565b60008151905060006a636f6e736f6c652e6c6f679050602083016000808483855afa5050505050565b828054620001e5906200033e565b90600052602060002090601f01602090048101928262000209576000855562000255565b82601f106200022457805160ff191683800117855562000255565b8280016001018555821562000255579182015b828111156200025457825182559160200191906001019062000237565b5b50905062000264919062000268565b5090565b5b808211156200028357600081600090555060010162000269565b5090565b60006200029482620002ec565b620002a08185620002f7565b9350620002b281856020860162000308565b620002bd81620003a3565b840191505092915050565b60006020820190508181036000830152620002e4818462000287565b905092915050565b600081519050919050565b600082825260208201905092915050565b60005b83811015620003285780820151818401526020810190506200030b565b8381111562000338576000848401525b50505050565b600060028204905060018216806200035757607f821691505b602082108114156200036e576200036d62000374565b5b50919050565b7f4e487b7100000000000000000000000000000000000000000000000000000000600052602260045260246000fd5b6000601f19601f8301169050919050565b6132f680620003c46000396000f3fe608060405234801561001057600080fd5b50600436106101165760003560e01c806370a08231116100a2578063a22cb46511610071578063a22cb465146102f5578063b88d4fde14610311578063c87b56dd1461032d578063e985e9c51461035d578063fedea0231461038d57610116565b806370a08231146102575780637c711b2714610287578063911fd8eb146102b957806395d89b41146102d757610116565b806323b872dd116100e957806323b872dd146101b557806338d64576146101d157806342842e0e146101ed5780634e9e1ec6146102095780636352211e1461022757610116565b806301ffc9a71461011b57806306fdde031461014b578063081812fc14610169578063095ea7b314610199575b600080fd5b6101356004803603810190610130919061214a565b6103ab565b604051610142919061275f565b60405180910390f35b61015361048d565b604051610160919061277a565b60405180910390f35b610183600480360381019061017e91906121dd565b61051f565b604051610190919061265a565b60405180910390f35b6101b360048036038101906101ae919061210e565b6105a4565b005b6101cf60048036038101906101ca9190612008565b6106bc565b005b6101eb60048036038101906101e6919061219c565b61071c565b005b61020760048036038101906102029190612008565b61088d565b005b6102116108ad565b60405161021e919061299c565b60405180910390f35b610241600480360381019061023c91906121dd565b6108b3565b60405161024e919061265a565b60405180910390f35b610271600480360381019061026c9190611fa3565b610965565b60405161027e919061299c565b60405180910390f35b6102a1600480360381019061029c91906121dd565b610a1d565b6040516102b0939291906126c1565b60405180910390f35b6102c1610aff565b6040516102ce919061299c565b60405180910390f35b6102df610b05565b6040516102ec919061277a565b60405180910390f35b61030f600480360381019061030a91906120d2565b610b97565b005b61032b60048036038101906103269190612057565b610bad565b005b610347600480360381019061034291906121dd565b610c0f565b604051610354919061277a565b60405180910390f35b61037760048036038101906103729190611fcc565b610d61565b604051610384919061275f565b60405180910390f35b610395610df5565b6040516103a2919061273d565b60405180910390f35b60007f80ac58cd000000000000000000000000000000000000000000000000000000007bffffffffffffffffffffffffffffffffffffffffffffffffffffffff1916827bffffffffffffffffffffffffffffffffffffffffffffffffffffffff1916148061047657507f5b5e139f000000000000000000000000000000000000000000000000000000007bffffffffffffffffffffffffffffffffffffffffffffffffffffffff1916827bffffffffffffffffffffffffffffffffffffffffffffffffffffffff1916145b80610486575061048582610fdf565b5b9050919050565b60606000805461049c90612c3c565b80601f01602080910402602001604051908101604052809291908181526020018280546104c890612c3c565b80156105155780601f106104ea57610100808354040283529160200191610515565b820191906000526020600020905b8154815290600101906020018083116104f857829003601f168201915b5050505050905090565b600061052a82611049565b610569576040517f08c379a00000000000000000000000000000000000000000000000000000000081526004016105609061291c565b60405180910390fd5b6004600083815260200190815260200160002060009054906101000a900473ffffffffffffffffffffffffffffffffffffffff169050919050565b60006105af826108b3565b90508073ffffffffffffffffffffffffffffffffffffffff168373ffffffffffffffffffffffffffffffffffffffff161415610620576040517f08c379a00000000000000000000000000000000000000000000000000000000081526004016106179061295c565b60405180910390fd5b8073ffffffffffffffffffffffffffffffffffffffff1661063f6110b5565b73ffffffffffffffffffffffffffffffffffffffff16148061066e575061066d816106686110b5565b610d61565b5b6106ad576040517f08c379a00000000000000000000000000000000000000000000000000000000081526004016106a49061285c565b60405180910390fd5b6106b783836110bd565b505050565b6106cd6106c76110b5565b82611176565b61070c576040517f08c379a00000000000000000000000000000000000000000000000000000000081526004016107039061297c565b60405180910390fd5b610717838383611254565b505050565b60085461072960076114bb565b1061073357600080fd5b600061073f60076114bb565b9050600060405180606001604052803373ffffffffffffffffffffffffffffffffffffffff16815260200184815260200183815250905061078033836114c9565b61078a82846114e7565b610794600761155b565b61079e60076114bb565b6008546107ab9190612b52565b600981905550600a81908060018154018082558091505060019003906000526020600020906003020160009091909190915060008201518160000160006101000a81548173ffffffffffffffffffffffffffffffffffffffff021916908373ffffffffffffffffffffffffffffffffffffffff1602179055506020820151816001019080519060200190610840929190611dc7565b506040820151816002015550507f89f273f7546784d1e53e910bceea74983bf6444b826671e5ecebf276132d2b39338385604051610880939291906126ff565b60405180910390a1505050565b6108a883838360405180602001604052806000815250610bad565b505050565b60085481565b6000806002600084815260200190815260200160002060009054906101000a900473ffffffffffffffffffffffffffffffffffffffff169050600073ffffffffffffffffffffffffffffffffffffffff168173ffffffffffffffffffffffffffffffffffffffff16141561095c576040517f08c379a00000000000000000000000000000000000000000000000000000000081526004016109539061289c565b60405180910390fd5b80915050919050565b60008073ffffffffffffffffffffffffffffffffffffffff168273ffffffffffffffffffffffffffffffffffffffff1614156109d6576040517f08c379a00000000000000000000000000000000000000000000000000000000081526004016109cd9061287c565b60405180910390fd5b600360008373ffffffffffffffffffffffffffffffffffffffff1673ffffffffffffffffffffffffffffffffffffffff168152602001908152602001600020549050919050565b600a8181548110610a2d57600080fd5b90600052602060002090600302016000915090508060000160009054906101000a900473ffffffffffffffffffffffffffffffffffffffff1690806001018054610a7690612c3c565b80601f0160208091040260200160405190810160405280929190818152602001828054610aa290612c3c565b8015610aef5780601f10610ac457610100808354040283529160200191610aef565b820191906000526020600020905b815481529060010190602001808311610ad257829003601f168201915b5050505050908060020154905083565b60095481565b606060018054610b1490612c3c565b80601f0160208091040260200160405190810160405280929190818152602001828054610b4090612c3c565b8015610b8d5780601f10610b6257610100808354040283529160200191610b8d565b820191906000526020600020905b815481529060010190602001808311610b7057829003601f168201915b5050505050905090565b610ba9610ba26110b5565b8383611571565b5050565b610bbe610bb86110b5565b83611176565b610bfd576040517f08c379a0000000000000000000000000000000000000000000000000000000008152600401610bf49061297c565b60405180910390fd5b610c09848484846116de565b50505050565b6060610c1a82611049565b610c59576040517f08c379a0000000000000000000000000000000000000000000000000000000008152600401610c50906128fc565b60405180910390fd5b6000600660008481526020019081526020016000208054610c7990612c3c565b80601f0160208091040260200160405190810160405280929190818152602001828054610ca590612c3c565b8015610cf25780601f10610cc757610100808354040283529160200191610cf2565b820191906000526020600020905b815481529060010190602001808311610cd557829003601f168201915b505050505090506000610d0361173a565b9050600081511415610d19578192505050610d5c565b600082511115610d4e578082604051602001610d36929190612636565b60405160208183030381529060405292505050610d5c565b610d5784611751565b925050505b919050565b6000600560008473ffffffffffffffffffffffffffffffffffffffff1673ffffffffffffffffffffffffffffffffffffffff16815260200190815260200160002060008373ffffffffffffffffffffffffffffffffffffffff1673ffffffffffffffffffffffffffffffffffffffff16815260200190815260200160002060009054906101000a900460ff16905092915050565b6060600a805480602002602001604051908101604052809291908181526020016000905b82821015610f3d57838290600052602060002090600302016040518060600160405290816000820160009054906101000a900473ffffffffffffffffffffffffffffffffffffffff1673ffffffffffffffffffffffffffffffffffffffff1673ffffffffffffffffffffffffffffffffffffffff168152602001600182018054610ea290612c3c565b80601f0160208091040260200160405190810160405280929190818152602001828054610ece90612c3c565b8015610f1b5780601f10610ef057610100808354040283529160200191610f1b565b820191906000526020600020905b815481529060010190602001808311610efe57829003601f168201915b5050505050815260200160028201548152505081526020019060010190610e19565b50505050905090565b610fdc81604051602401610f5a919061277a565b6040516020818303038152906040527f41304fac000000000000000000000000000000000000000000000000000000007bffffffffffffffffffffffffffffffffffffffffffffffffffffffff19166020820180517bffffffffffffffffffffffffffffffffffffffffffffffffffffffff83818316178352505050506117f8565b50565b60007f01ffc9a7000000000000000000000000000000000000000000000000000000007bffffffffffffffffffffffffffffffffffffffffffffffffffffffff1916827bffffffffffffffffffffffffffffffffffffffffffffffffffffffff1916149050919050565b60008073ffffffffffffffffffffffffffffffffffffffff166002600084815260200190815260200160002060009054906101000a900473ffffffffffffffffffffffffffffffffffffffff1673ffffffffffffffffffffffffffffffffffffffff1614159050919050565b600033905090565b816004600083815260200190815260200160002060006101000a81548173ffffffffffffffffffffffffffffffffffffffff021916908373ffffffffffffffffffffffffffffffffffffffff160217905550808273ffffffffffffffffffffffffffffffffffffffff16611130836108b3565b73ffffffffffffffffffffffffffffffffffffffff167f8c5be1e5ebec7d5bd14f71427d1e84f3dd0314c0f7b2291e5b200ac8c7c3b92560405160405180910390a45050565b600061118182611049565b6111c0576040517f08c379a00000000000000000000000000000000000000000000000000000000081526004016111b79061283c565b60405180910390fd5b60006111cb836108b3565b90508073ffffffffffffffffffffffffffffffffffffffff168473ffffffffffffffffffffffffffffffffffffffff16148061123a57508373ffffffffffffffffffffffffffffffffffffffff166112228461051f565b73ffffffffffffffffffffffffffffffffffffffff16145b8061124b575061124a8185610d61565b5b91505092915050565b8273ffffffffffffffffffffffffffffffffffffffff16611274826108b3565b73ffffffffffffffffffffffffffffffffffffffff16146112ca576040517f08c379a00000000000000000000000000000000000000000000000000000000081526004016112c1906127bc565b60405180910390fd5b600073ffffffffffffffffffffffffffffffffffffffff168273ffffffffffffffffffffffffffffffffffffffff16141561133a576040517f08c379a0000000000000000000000000000000000000000000000000000000008152600401611331906127fc565b60405180910390fd5b611345838383611821565b6113506000826110bd565b6001600360008573ffffffffffffffffffffffffffffffffffffffff1673ffffffffffffffffffffffffffffffffffffffff16815260200190815260200160002060008282546113a09190612b52565b925050819055506001600360008473ffffffffffffffffffffffffffffffffffffffff1673ffffffffffffffffffffffffffffffffffffffff16815260200190815260200160002060008282546113f79190612acb565b92505081905550816002600083815260200190815260200160002060006101000a81548173ffffffffffffffffffffffffffffffffffffffff021916908373ffffffffffffffffffffffffffffffffffffffff160217905550808273ffffffffffffffffffffffffffffffffffffffff168473ffffffffffffffffffffffffffffffffffffffff167fddf252ad1be2c89b69c2b068fc378daa952ba7f163c4a11628f55a4df523b3ef60405160405180910390a46114b6838383611826565b505050565b600081600001549050919050565b6114e382826040518060200160405280600081525061182b565b5050565b6114f082611049565b61152f576040517f08c379a0000000000000000000000000000000000000000000000000000000008152600401611526906128bc565b60405180910390fd5b80600660008481526020019081526020016000209080519060200190611556929190611dc7565b505050565b6001816000016000828254019250508190555050565b8173ffffffffffffffffffffffffffffffffffffffff168373ffffffffffffffffffffffffffffffffffffffff1614156115e0576040517f08c379a00000000000000000000000000000000000000000000000000000000081526004016115d79061281c565b60405180910390fd5b80600560008573ffffffffffffffffffffffffffffffffffffffff1673ffffffffffffffffffffffffffffffffffffffff16815260200190815260200160002060008473ffffffffffffffffffffffffffffffffffffffff1673ffffffffffffffffffffffffffffffffffffffff16815260200190815260200160002060006101000a81548160ff0219169083151502179055508173ffffffffffffffffffffffffffffffffffffffff168373ffffffffffffffffffffffffffffffffffffffff167f17307eab39ab6107e8899845ad3d59bd9653f200f220920489ca2b5937696c31836040516116d1919061275f565b60405180910390a3505050565b6116e9848484611254565b6116f584848484611886565b611734576040517f08c379a000000000000000000000000000000000000000000000000000000000815260040161172b9061279c565b60405180910390fd5b50505050565b606060405180602001604052806000815250905090565b606061175c82611049565b61179b576040517f08c379a00000000000000000000000000000000000000000000000000000000081526004016117929061293c565b60405180910390fd5b60006117a561173a565b905060008151116117c557604051806020016040528060008152506117f0565b806117cf84611a1d565b6040516020016117e0929190612636565b6040516020818303038152906040525b915050919050565b60008151905060006a636f6e736f6c652e6c6f679050602083016000808483855afa5050505050565b505050565b505050565b6118358383611bca565b6118426000848484611886565b611881576040517f08c379a00000000000000000000000000000000000000000000000000000000081526004016118789061279c565b60405180910390fd5b505050565b60006118a78473ffffffffffffffffffffffffffffffffffffffff16611da4565b15611a10578373ffffffffffffffffffffffffffffffffffffffff1663150b7a026118d06110b5565b8786866040518563ffffffff1660e01b81526004016118f29493929190612675565b602060405180830381600087803b15801561190c57600080fd5b505af192505050801561193d57506040513d601f19601f8201168201806040525081019061193a9190612173565b60015b6119c0573d806000811461196d576040519150601f19603f3d011682016040523d82523d6000602084013e611972565b606091505b506000815114156119b8576040517f08c379a00000000000000000000000000000000000000000000000000000000081526004016119af9061279c565b60405180910390fd5b805181602001fd5b63150b7a0260e01b7bffffffffffffffffffffffffffffffffffffffffffffffffffffffff1916817bffffffffffffffffffffffffffffffffffffffffffffffffffffffff191614915050611a15565b600190505b949350505050565b60606000821415611a65576040518060400160405280600181526020017f30000000000000000000000000000000000000000000000000000000000000008152509050611bc5565b600082905060005b60008214611a97578080611a8090612c9f565b915050600a82611a909190612b21565b9150611a6d565b60008167ffffffffffffffff811115611ad9577f4e487b7100000000000000000000000000000000000000000000000000000000600052604160045260246000fd5b6040519080825280601f01601f191660200182016040528015611b0b5781602001600182028036833780820191505090505b5090505b60008514611bbe57600182611b249190612b52565b9150600a85611b339190612ce8565b6030611b3f9190612acb565b60f81b818381518110611b7b577f4e487b7100000000000000000000000000000000000000000000000000000000600052603260045260246000fd5b60200101907effffffffffffffffffffffffffffffffffffffffffffffffffffffffffffff1916908160001a905350600a85611bb79190612b21565b9450611b0f565b8093505050505b919050565b600073ffffffffffffffffffffffffffffffffffffffff168273ffffffffffffffffffffffffffffffffffffffff161415611c3a576040517f08c379a0000000000000000000000000000000000000000000000000000000008152600401611c31906128dc565b60405180910390fd5b611c4381611049565b15611c83576040517f08c379a0000000000000000000000000000000000000000000000000000000008152600401611c7a906127dc565b60405180910390fd5b611c8f60008383611821565b6001600360008473ffffffffffffffffffffffffffffffffffffffff1673ffffffffffffffffffffffffffffffffffffffff1681526020019081526020016000206000828254611cdf9190612acb565b92505081905550816002600083815260200190815260200160002060006101000a81548173ffffffffffffffffffffffffffffffffffffffff021916908373ffffffffffffffffffffffffffffffffffffffff160217905550808273ffffffffffffffffffffffffffffffffffffffff16600073ffffffffffffffffffffffffffffffffffffffff167fddf252ad1be2c89b69c2b068fc378daa952ba7f163c4a11628f55a4df523b3ef60405160405180910390a4611da060008383611826565b5050565b6000808273ffffffffffffffffffffffffffffffffffffffff163b119050919050565b828054611dd390612c3c565b90600052602060002090601f016020900481019282611df55760008555611e3c565b82601f10611e0e57805160ff1916838001178555611e3c565b82800160010185558215611e3c579182015b82811115611e3b578251825591602001919060010190611e20565b5b509050611e499190611e4d565b5090565b5b80821115611e66576000816000905550600101611e4e565b5090565b6000611e7d611e78846129dc565b6129b7565b905082815260208101848484011115611e9557600080fd5b611ea0848285612bfa565b509392505050565b6000611ebb611eb684612a0d565b6129b7565b905082815260208101848484011115611ed357600080fd5b611ede848285612bfa565b509392505050565b600081359050611ef581613264565b92915050565b600081359050611f0a8161327b565b92915050565b600081359050611f1f81613292565b92915050565b600081519050611f3481613292565b92915050565b600082601f830112611f4b57600080fd5b8135611f5b848260208601611e6a565b91505092915050565b600082601f830112611f7557600080fd5b8135611f85848260208601611ea8565b91505092915050565b600081359050611f9d816132a9565b92915050565b600060208284031215611fb557600080fd5b6000611fc384828501611ee6565b91505092915050565b60008060408385031215611fdf57600080fd5b6000611fed85828601611ee6565b9250506020611ffe85828601611ee6565b9150509250929050565b60008060006060848603121561201d57600080fd5b600061202b86828701611ee6565b935050602061203c86828701611ee6565b925050604061204d86828701611f8e565b9150509250925092565b6000806000806080858703121561206d57600080fd5b600061207b87828801611ee6565b945050602061208c87828801611ee6565b935050604061209d87828801611f8e565b925050606085013567ffffffffffffffff8111156120ba57600080fd5b6120c687828801611f3a565b91505092959194509250565b600080604083850312156120e557600080fd5b60006120f385828601611ee6565b925050602061210485828601611efb565b9150509250929050565b6000806040838503121561212157600080fd5b600061212f85828601611ee6565b925050602061214085828601611f8e565b9150509250929050565b60006020828403121561215c57600080fd5b600061216a84828501611f10565b91505092915050565b60006020828403121561218557600080fd5b600061219384828501611f25565b91505092915050565b6000602082840312156121ae57600080fd5b600082013567ffffffffffffffff8111156121c857600080fd5b6121d484828501611f64565b91505092915050565b6000602082840312156121ef57600080fd5b60006121fd84828501611f8e565b91505092915050565b600061221283836125c8565b905092915050565b61222381612b86565b82525050565b61223281612b86565b82525050565b600061224382612a4e565b61224d8185612a7c565b93508360208202850161225f85612a3e565b8060005b8581101561229b578484038952815161227c8582612206565b945061228783612a6f565b925060208a01995050600181019050612263565b50829750879550505050505092915050565b6122b681612b98565b82525050565b60006122c782612a59565b6122d18185612a8d565b93506122e1818560208601612c09565b6122ea81612dd5565b840191505092915050565b600061230082612a64565b61230a8185612a9e565b935061231a818560208601612c09565b61232381612dd5565b840191505092915050565b600061233982612a64565b6123438185612aaf565b9350612353818560208601612c09565b61235c81612dd5565b840191505092915050565b600061237282612a64565b61237c8185612ac0565b935061238c818560208601612c09565b80840191505092915050565b60006123a5603283612aaf565b91506123b082612de6565b604082019050919050565b60006123c8602583612aaf565b91506123d382612e35565b604082019050919050565b60006123eb601c83612aaf565b91506123f682612e84565b602082019050919050565b600061240e602483612aaf565b915061241982612ead565b604082019050919050565b6000612431601983612aaf565b915061243c82612efc565b602082019050919050565b6000612454602c83612aaf565b915061245f82612f25565b604082019050919050565b6000612477603883612aaf565b915061248282612f74565b604082019050919050565b600061249a602a83612aaf565b91506124a582612fc3565b604082019050919050565b60006124bd602983612aaf565b91506124c882613012565b604082019050919050565b60006124e0602e83612aaf565b91506124eb82613061565b604082019050919050565b6000612503602083612aaf565b915061250e826130b0565b602082019050919050565b6000612526603183612aaf565b9150612531826130d9565b604082019050919050565b6000612549602c83612aaf565b915061255482613128565b604082019050919050565b600061256c602f83612aaf565b915061257782613177565b604082019050919050565b600061258f602183612aaf565b915061259a826131c6565b604082019050919050565b60006125b2603183612aaf565b91506125bd82613215565b604082019050919050565b60006060830160008301516125e0600086018261221a565b50602083015184820360208601526125f882826122f5565b915050604083015161260d6040860182612618565b508091505092915050565b61262181612bf0565b82525050565b61263081612bf0565b82525050565b60006126428285612367565b915061264e8284612367565b91508190509392505050565b600060208201905061266f6000830184612229565b92915050565b600060808201905061268a6000830187612229565b6126976020830186612229565b6126a46040830185612627565b81810360608301526126b681846122bc565b905095945050505050565b60006060820190506126d66000830186612229565b81810360208301526126e8818561232e565b90506126f76040830184612627565b949350505050565b60006060820190506127146000830186612229565b6127216020830185612627565b8181036040830152612733818461232e565b9050949350505050565b600060208201905081810360008301526127578184612238565b905092915050565b600060208201905061277460008301846122ad565b92915050565b60006020820190508181036000830152612794818461232e565b905092915050565b600060208201905081810360008301526127b581612398565b9050919050565b600060208201905081810360008301526127d5816123bb565b9050919050565b600060208201905081810360008301526127f5816123de565b9050919050565b6000602082019050818103600083015261281581612401565b9050919050565b6000602082019050818103600083015261283581612424565b9050919050565b6000602082019050818103600083015261285581612447565b9050919050565b600060208201905081810360008301526128758161246a565b9050919050565b600060208201905081810360008301526128958161248d565b9050919050565b600060208201905081810360008301526128b5816124b0565b9050919050565b600060208201905081810360008301526128d5816124d3565b9050919050565b600060208201905081810360008301526128f5816124f6565b9050919050565b6000602082019050818103600083015261291581612519565b9050919050565b600060208201905081810360008301526129358161253c565b9050919050565b600060208201905081810360008301526129558161255f565b9050919050565b6000602082019050818103600083015261297581612582565b9050919050565b60006020820190508181036000830152612995816125a5565b9050919050565b60006020820190506129b16000830184612627565b92915050565b60006129c16129d2565b90506129cd8282612c6e565b919050565b6000604051905090565b600067ffffffffffffffff8211156129f7576129f6612da6565b5b612a0082612dd5565b9050602081019050919050565b600067ffffffffffffffff821115612a2857612a27612da6565b5b612a3182612dd5565b9050602081019050919050565b6000819050602082019050919050565b600081519050919050565b600081519050919050565b600081519050919050565b6000602082019050919050565b600082825260208201905092915050565b600082825260208201905092915050565b600082825260208201905092915050565b600082825260208201905092915050565b600081905092915050565b6000612ad682612bf0565b9150612ae183612bf0565b9250827fffffffffffffffffffffffffffffffffffffffffffffffffffffffffffffffff03821115612b1657612b15612d19565b5b828201905092915050565b6000612b2c82612bf0565b9150612b3783612bf0565b925082612b4757612b46612d48565b5b828204905092915050565b6000612b5d82612bf0565b9150612b6883612bf0565b925082821015612b7b57612b7a612d19565b5b828203905092915050565b6000612b9182612bd0565b9050919050565b60008115159050919050565b60007fffffffff0000000000000000000000000000000000000000000000000000000082169050919050565b600073ffffffffffffffffffffffffffffffffffffffff82169050919050565b6000819050919050565b82818337600083830152505050565b60005b83811015612c27578082015181840152602081019050612c0c565b83811115612c36576000848401525b50505050565b60006002820490506001821680612c5457607f821691505b60208210811415612c6857612c67612d77565b5b50919050565b612c7782612dd5565b810181811067ffffffffffffffff82111715612c9657612c95612da6565b5b80604052505050565b6000612caa82612bf0565b91507fffffffffffffffffffffffffffffffffffffffffffffffffffffffffffffffff821415612cdd57612cdc612d19565b5b600182019050919050565b6000612cf382612bf0565b9150612cfe83612bf0565b925082612d0e57612d0d612d48565b5b828206905092915050565b7f4e487b7100000000000000000000000000000000000000000000000000000000600052601160045260246000fd5b7f4e487b7100000000000000000000000000000000000000000000000000000000600052601260045260246000fd5b7f4e487b7100000000000000000000000000000000000000000000000000000000600052602260045260246000fd5b7f4e487b7100000000000000000000000000000000000000000000000000000000600052604160045260246000fd5b6000601f19601f8301169050919050565b7f4552433732313a207472616e7366657220746f206e6f6e20455243373231526560008201527f63656976657220696d706c656d656e7465720000000000000000000000000000602082015250565b7f4552433732313a207472616e736665722066726f6d20696e636f72726563742060008201527f6f776e6572000000000000000000000000000000000000000000000000000000602082015250565b7f4552433732313a20746f6b656e20616c7265616479206d696e74656400000000600082015250565b7f4552433732313a207472616e7366657220746f20746865207a65726f2061646460008201527f7265737300000000000000000000000000000000000000000000000000000000602082015250565b7f4552433732313a20617070726f766520746f2063616c6c657200000000000000600082015250565b7f4552433732313a206f70657261746f7220717565727920666f72206e6f6e657860008201527f697374656e7420746f6b656e0000000000000000000000000000000000000000602082015250565b7f4552433732313a20617070726f76652063616c6c6572206973206e6f74206f7760008201527f6e6572206e6f7220617070726f76656420666f7220616c6c0000000000000000602082015250565b7f4552433732313a2062616c616e636520717565727920666f7220746865207a6560008201527f726f206164647265737300000000000000000000000000000000000000000000602082015250565b7f4552433732313a206f776e657220717565727920666f72206e6f6e657869737460008201527f656e7420746f6b656e0000000000000000000000000000000000000000000000602082015250565b7f45524337323155524953746f726167653a2055524920736574206f66206e6f6e60008201527f6578697374656e7420746f6b656e000000000000000000000000000000000000602082015250565b7f4552433732313a206d696e7420746f20746865207a65726f2061646472657373600082015250565b7f45524337323155524953746f726167653a2055524920717565727920666f722060008201527f6e6f6e6578697374656e7420746f6b656e000000000000000000000000000000602082015250565b7f4552433732313a20617070726f76656420717565727920666f72206e6f6e657860008201527f697374656e7420746f6b656e0000000000000000000000000000000000000000602082015250565b7f4552433732314d657461646174613a2055524920717565727920666f72206e6f60008201527f6e6578697374656e7420746f6b656e0000000000000000000000000000000000602082015250565b7f4552433732313a20617070726f76616c20746f2063757272656e74206f776e6560008201527f7200000000000000000000000000000000000000000000000000000000000000602082015250565b7f4552433732313a207472616e736665722063616c6c6572206973206e6f74206f60008201527f776e6572206e6f7220617070726f766564000000000000000000000000000000602082015250565b61326d81612b86565b811461327857600080fd5b50565b61328481612b98565b811461328f57600080fd5b50565b61329b81612ba4565b81146132a657600080fd5b50565b6132b281612bf0565b81146132bd57600080fd5b5056fea26469706673582212205acd0a1b9822446270c0041a1fcac6dcc16bbf6ea9944e2516ff2c431776afe064736f6c63430008040033",
  "linkReferences": {},
  "deployedLinkReferences": {}
}